{"abi":[{"inputs":[],"stateMutability":"nonpayable","type":"constructor"},{"inputs":[],"name":"endGame","outputs":[],"stateMutability":"nonpayable","type":"function"},{"inputs":[],"name":"enterGame","outputs":[],"stateMutability":"nonpayable","type":"function"},{"inputs":[],"name":"gameInitVar","outputs":[{"internalType":"uint256","name":"MAP_WIDTH","type":"uint256"},{"internalType":"uint256","name":"MAP_LENGTH","type":"uint256"},{"internalType":"uint256","name":"PLAYER_INITIAL_NUTRITION","type":"uint256"},{"internalType":"uint256","name":"COLONY_MAX_ABSORPTION_RATE","type":"uint256"},{"internalType":"uint256","name":"COLONY_MAX_DEFENSE_NUTRITION","type":"uint256"},{"internalType":"uint256","name":"COLONY_MAX_OCCUPY_NUTRITION","type":"uint256"},{"internalType":"uint256","name":"COLONY_NUTRITION_ABSORPTION_INIT_RANDOM_SEED","type":"uint256"},{"internalType":"uint256","name":"COLONY_DEFENSE_NUTRITION_INIT_RANDOM_SEED","type":"uint256"},{"internalType":"uint256","name":"COLONY_OCCUPY_NUTRITION_INTI_RANDOM_SEED","type":"uint256"}],"stateMutability":"view","type":"function"},{"inputs":[],"name":"gameManager","outputs":[{"internalType":"address","name":"adminAddress","type":"address"},{"internalType":"uint256","name":"time","type":"uint256"},{"internalType":"uint256","name":"mapWidth","type":"uint256"},{"internalType":"uint256","name":"mapLength","type":"uint256"},{"internalType":"uint256","name":"totalColonyCount","type":"uint256"},{"internalType":"bool","name":"isInit","type":"bool"},{"internalType":"bool","name":"isStart","type":"bool"},{"internalType":"bool","name":"isEnd","type":"bool"},{"internalType":"uint256","name":"playerCount","type":"uint256"}],"stateMutability":"view","type":"function"},{"inputs":[{"internalType":"uint256","name":"colonyID","type":"uint256"}],"name":"getColonyInfo","outputs":[{"internalType":"uint256","name":"","type":"uint256"},{"internalType":"uint256","name":"","type":"uint256"},{"internalType":"uint256","name":"","type":"uint256"},{"internalType":"uint256","name":"","type":"uint256"},{"internalType":"uint256","name":"","type":"uint256"},{"internalType":"bool","name":"","type":"bool"}],"stateMutability":"view","type":"function"},{"inputs":[{"internalType":"uint256","name":"playerID","type":"uint256"}],"name":"getPlayerInfo","outputs":[{"internalType":"uint256","name":"","type":"uint256"},{"internalType":"address","name":"","type":"address"},{"internalType":"uint256","name":"","type":"uint256"},{"internalType":"uint256","name":"","type":"uint256"},{"internalType":"uint256","name":"","type":"uint256"},{"internalType":"uint256","name":"","type":"uint256"}],"stateMutability":"view","type":"function"},{"inputs":[],"name":"initializeGame","outputs":[],"stateMutability":"nonpayable","type":"function"},{"inputs":[],"name":"initializeGameManager","outputs":[],"stateMutability":"nonpayable","type":"function"},{"inputs":[],"name":"pickWinner","outputs":[{"internalType":"address","name":"","type":"address"}],"stateMutability":"view","type":"function"},{"inputs":[],"name":"updateState","outputs":[],"stateMutability":"nonpayable","type":"function"}],"devdoc":{"kind":"dev","methods":{},"version":1},"evm":{"assembly":"    /* \"BacteriaLabCore.sol\":7111:10649  contract BacteriaLabCore {... */\n  mstore(0x40, 0x80)\n    /* \"BacteriaLabCore.sol\":7437:7936  constructor() {... */\n  callvalue\n  dup1\n  iszero\n  tag_1\n  jumpi\n  0x00\n  dup1\n  revert\ntag_1:\n  pop\n    /* \"BacteriaLabCore.sol\":7489:7499  msg.sender */\n  caller\n    /* \"BacteriaLabCore.sol\":7462:7473  gameManager */\n  0x00\n    /* \"BacteriaLabCore.sol\":7462:7486  gameManager.adminAddress */\n  dup1\n  add\n  0x00\n    /* \"BacteriaLabCore.sol\":7462:7499  gameManager.adminAddress = msg.sender */\n  0x0100\n  exp\n  dup2\n  sload\n  dup2\n  0xffffffffffffffffffffffffffffffffffffffff\n  mul\n  not\n  and\n  swap1\n  dup4\n  0xffffffffffffffffffffffffffffffffffffffff\n  and\n  mul\n  or\n  swap1\n  sstore\n  pop\n    /* \"BacteriaLabCore.sol\":7512:7534  BacteriaLabGameManager */\n  linkerSymbol(\"baede851b1274e985b884bd9a841b6029f5c374c44c0c93d3180b37aa7d7b344\")\n    /* \"BacteriaLabCore.sol\":7512:7554  BacteriaLabGameManager.setGameInitVariable */\n  0x2d647a1c\n    /* \"BacteriaLabCore.sol\":7579:7590  gameInitVar */\n  0x0b\n    /* \"BacteriaLabCore.sol\":7612:7613  3 */\n  0x03\n    /* \"BacteriaLabCore.sol\":7635:7636  3 */\n  dup1\n    /* \"BacteriaLabCore.sol\":7671:7674  100 */\n  0x64\n    /* \"BacteriaLabCore.sol\":7710:7712  20 */\n  0x14\n    /* \"BacteriaLabCore.sol\":7750:7752  50 */\n  0x32\n    /* \"BacteriaLabCore.sol\":7789:7791  20 */\n  0x14\n    /* \"BacteriaLabCore.sol\":7833:7835  13 */\n  0x0d\n    /* \"BacteriaLabCore.sol\":7874:7876  37 */\n  0x25\n    /* \"BacteriaLabCore.sol\":7914:7916  53 */\n  0x35\n    /* \"BacteriaLabCore.sol\":7512:7928  BacteriaLabGameManager.setGameInitVariable({... */\n  mload(0x40)\n  dup12\n  0xffffffff\n  and\n  0xe0\n  shl\n  dup2\n  mstore\n  0x04\n  add\n  tag_4\n  swap11\n  swap10\n  swap9\n  swap8\n  swap7\n  swap6\n  swap5\n  swap4\n  swap3\n  swap2\n  swap1\n  tag_5\n  jump\t// in\ntag_4:\n  0x00\n  mload(0x40)\n  dup1\n  dup4\n  sub\n  dup2\n  dup7\n  dup1\n  extcodesize\n  iszero\n  dup1\n  iszero\n  tag_6\n  jumpi\n  0x00\n  dup1\n  revert\ntag_6:\n  pop\n  gas\n  delegatecall\n  iszero\n  dup1\n  iszero\n  tag_8\n  jumpi\n  returndatasize\n  0x00\n  dup1\n  returndatacopy\n  revert(0x00, returndatasize)\ntag_8:\n  pop\n  pop\n  pop\n  pop\n    /* \"BacteriaLabCore.sol\":7111:10649  contract BacteriaLabCore {... */\n  jump(tag_9)\n    /* \"#utility.yul\":7:142   */\ntag_10:\n    /* \"#utility.yul\":130:135   */\n  dup1\n    /* \"#utility.yul\":125:128   */\n  dup3\n    /* \"#utility.yul\":118:136   */\n  mstore\n    /* \"#utility.yul\":7:142   */\n  pop\n  pop\n  jump\t// out\n    /* \"#utility.yul\":148:233   */\ntag_11:\n    /* \"#utility.yul\":193:200   */\n  0x00\n    /* \"#utility.yul\":222:227   */\n  dup2\n    /* \"#utility.yul\":211:227   */\n  swap1\n  pop\n    /* \"#utility.yul\":148:233   */\n  swap2\n  swap1\n  pop\n  jump\t// out\n    /* \"#utility.yul\":239:316   */\ntag_12:\n    /* \"#utility.yul\":276:283   */\n  0x00\n    /* \"#utility.yul\":305:310   */\n  dup2\n    /* \"#utility.yul\":294:310   */\n  swap1\n  pop\n    /* \"#utility.yul\":239:316   */\n  swap2\n  swap1\n  pop\n  jump\t// out\n    /* \"#utility.yul\":322:382   */\ntag_13:\n    /* \"#utility.yul\":350:353   */\n  0x00\n    /* \"#utility.yul\":371:376   */\n  dup2\n    /* \"#utility.yul\":364:376   */\n  swap1\n  pop\n    /* \"#utility.yul\":322:382   */\n  swap2\n  swap1\n  pop\n  jump\t// out\n    /* \"#utility.yul\":388:546   */\ntag_14:\n    /* \"#utility.yul\":446:455   */\n  0x00\n    /* \"#utility.yul\":479:540   */\n  tag_40\n    /* \"#utility.yul\":497:539   */\n  tag_41\n    /* \"#utility.yul\":506:538   */\n  tag_42\n    /* \"#utility.yul\":532:537   */\n  dup5\n    /* \"#utility.yul\":506:538   */\n  tag_11\n  jump\t// in\ntag_42:\n    /* \"#utility.yul\":497:539   */\n  tag_13\n  jump\t// in\ntag_41:\n    /* \"#utility.yul\":479:540   */\n  tag_12\n  jump\t// in\ntag_40:\n    /* \"#utility.yul\":466:540   */\n  swap1\n  pop\n    /* \"#utility.yul\":388:546   */\n  swap2\n  swap1\n  pop\n  jump\t// out\n    /* \"#utility.yul\":552:707   */\ntag_15:\n    /* \"#utility.yul\":655:700   */\n  tag_44\n    /* \"#utility.yul\":694:699   */\n  dup2\n    /* \"#utility.yul\":655:700   */\n  tag_14\n  jump\t// in\ntag_44:\n    /* \"#utility.yul\":650:653   */\n  dup3\n    /* \"#utility.yul\":643:701   */\n  mstore\n    /* \"#utility.yul\":552:707   */\n  pop\n  pop\n  jump\t// out\n    /* \"#utility.yul\":713:800   */\ntag_16:\n    /* \"#utility.yul\":760:767   */\n  0x00\n    /* \"#utility.yul\":789:794   */\n  dup2\n    /* \"#utility.yul\":778:794   */\n  swap1\n  pop\n    /* \"#utility.yul\":713:800   */\n  swap2\n  swap1\n  pop\n  jump\t// out\n    /* \"#utility.yul\":806:968   */\ntag_17:\n    /* \"#utility.yul\":866:875   */\n  0x00\n    /* \"#utility.yul\":899:962   */\n  tag_47\n    /* \"#utility.yul\":917:961   */\n  tag_48\n    /* \"#utility.yul\":926:960   */\n  tag_49\n    /* \"#utility.yul\":954:959   */\n  dup5\n    /* \"#utility.yul\":926:960   */\n  tag_16\n  jump\t// in\ntag_49:\n    /* \"#utility.yul\":917:961   */\n  tag_13\n  jump\t// in\ntag_48:\n    /* \"#utility.yul\":899:962   */\n  tag_12\n  jump\t// in\ntag_47:\n    /* \"#utility.yul\":886:962   */\n  swap1\n  pop\n    /* \"#utility.yul\":806:968   */\n  swap2\n  swap1\n  pop\n  jump\t// out\n    /* \"#utility.yul\":974:1133   */\ntag_18:\n    /* \"#utility.yul\":1079:1126   */\n  tag_51\n    /* \"#utility.yul\":1120:1125   */\n  dup2\n    /* \"#utility.yul\":1079:1126   */\n  tag_17\n  jump\t// in\ntag_51:\n    /* \"#utility.yul\":1074:1077   */\n  dup3\n    /* \"#utility.yul\":1067:1127   */\n  mstore\n    /* \"#utility.yul\":974:1133   */\n  pop\n  pop\n  jump\t// out\n    /* \"#utility.yul\":1139:1225   */\ntag_19:\n    /* \"#utility.yul\":1185:1192   */\n  0x00\n    /* \"#utility.yul\":1214:1219   */\n  dup2\n    /* \"#utility.yul\":1203:1219   */\n  swap1\n  pop\n    /* \"#utility.yul\":1139:1225   */\n  swap2\n  swap1\n  pop\n  jump\t// out\n    /* \"#utility.yul\":1231:1391   */\ntag_20:\n    /* \"#utility.yul\":1290:1299   */\n  0x00\n    /* \"#utility.yul\":1323:1385   */\n  tag_54\n    /* \"#utility.yul\":1341:1384   */\n  tag_55\n    /* \"#utility.yul\":1350:1383   */\n  tag_56\n    /* \"#utility.yul\":1377:1382   */\n  dup5\n    /* \"#utility.yul\":1350:1383   */\n  tag_19\n  jump\t// in\ntag_56:\n    /* \"#utility.yul\":1341:1384   */\n  tag_13\n  jump\t// in\ntag_55:\n    /* \"#utility.yul\":1323:1385   */\n  tag_12\n  jump\t// in\ntag_54:\n    /* \"#utility.yul\":1310:1385   */\n  swap1\n  pop\n    /* \"#utility.yul\":1231:1391   */\n  swap2\n  swap1\n  pop\n  jump\t// out\n    /* \"#utility.yul\":1397:1554   */\ntag_21:\n    /* \"#utility.yul\":1501:1547   */\n  tag_58\n    /* \"#utility.yul\":1541:1546   */\n  dup2\n    /* \"#utility.yul\":1501:1547   */\n  tag_20\n  jump\t// in\ntag_58:\n    /* \"#utility.yul\":1496:1499   */\n  dup3\n    /* \"#utility.yul\":1489:1548   */\n  mstore\n    /* \"#utility.yul\":1397:1554   */\n  pop\n  pop\n  jump\t// out\n    /* \"#utility.yul\":1560:1646   */\ntag_22:\n    /* \"#utility.yul\":1606:1613   */\n  0x00\n    /* \"#utility.yul\":1635:1640   */\n  dup2\n    /* \"#utility.yul\":1624:1640   */\n  swap1\n  pop\n    /* \"#utility.yul\":1560:1646   */\n  swap2\n  swap1\n  pop\n  jump\t// out\n    /* \"#utility.yul\":1652:1812   */\ntag_23:\n    /* \"#utility.yul\":1711:1720   */\n  0x00\n    /* \"#utility.yul\":1744:1806   */\n  tag_61\n    /* \"#utility.yul\":1762:1805   */\n  tag_62\n    /* \"#utility.yul\":1771:1804   */\n  tag_63\n    /* \"#utility.yul\":1798:1803   */\n  dup5\n    /* \"#utility.yul\":1771:1804   */\n  tag_22\n  jump\t// in\ntag_63:\n    /* \"#utility.yul\":1762:1805   */\n  tag_13\n  jump\t// in\ntag_62:\n    /* \"#utility.yul\":1744:1806   */\n  tag_12\n  jump\t// in\ntag_61:\n    /* \"#utility.yul\":1731:1806   */\n  swap1\n  pop\n    /* \"#utility.yul\":1652:1812   */\n  swap2\n  swap1\n  pop\n  jump\t// out\n    /* \"#utility.yul\":1818:1975   */\ntag_24:\n    /* \"#utility.yul\":1922:1968   */\n  tag_65\n    /* \"#utility.yul\":1962:1967   */\n  dup2\n    /* \"#utility.yul\":1922:1968   */\n  tag_23\n  jump\t// in\ntag_65:\n    /* \"#utility.yul\":1917:1920   */\n  dup3\n    /* \"#utility.yul\":1910:1969   */\n  mstore\n    /* \"#utility.yul\":1818:1975   */\n  pop\n  pop\n  jump\t// out\n    /* \"#utility.yul\":1981:2067   */\ntag_25:\n    /* \"#utility.yul\":2027:2034   */\n  0x00\n    /* \"#utility.yul\":2056:2061   */\n  dup2\n    /* \"#utility.yul\":2045:2061   */\n  swap1\n  pop\n    /* \"#utility.yul\":1981:2067   */\n  swap2\n  swap1\n  pop\n  jump\t// out\n    /* \"#utility.yul\":2073:2233   */\ntag_26:\n    /* \"#utility.yul\":2132:2141   */\n  0x00\n    /* \"#utility.yul\":2165:2227   */\n  tag_68\n    /* \"#utility.yul\":2183:2226   */\n  tag_69\n    /* \"#utility.yul\":2192:2225   */\n  tag_70\n    /* \"#utility.yul\":2219:2224   */\n  dup5\n    /* \"#utility.yul\":2192:2225   */\n  tag_25\n  jump\t// in\ntag_70:\n    /* \"#utility.yul\":2183:2226   */\n  tag_13\n  jump\t// in\ntag_69:\n    /* \"#utility.yul\":2165:2227   */\n  tag_12\n  jump\t// in\ntag_68:\n    /* \"#utility.yul\":2152:2227   */\n  swap1\n  pop\n    /* \"#utility.yul\":2073:2233   */\n  swap2\n  swap1\n  pop\n  jump\t// out\n    /* \"#utility.yul\":2239:2396   */\ntag_27:\n    /* \"#utility.yul\":2343:2389   */\n  tag_72\n    /* \"#utility.yul\":2383:2388   */\n  dup2\n    /* \"#utility.yul\":2343:2389   */\n  tag_26\n  jump\t// in\ntag_72:\n    /* \"#utility.yul\":2338:2341   */\n  dup3\n    /* \"#utility.yul\":2331:2390   */\n  mstore\n    /* \"#utility.yul\":2239:2396   */\n  pop\n  pop\n  jump\t// out\n    /* \"#utility.yul\":2402:2488   */\ntag_28:\n    /* \"#utility.yul\":2448:2455   */\n  0x00\n    /* \"#utility.yul\":2477:2482   */\n  dup2\n    /* \"#utility.yul\":2466:2482   */\n  swap1\n  pop\n    /* \"#utility.yul\":2402:2488   */\n  swap2\n  swap1\n  pop\n  jump\t// out\n    /* \"#utility.yul\":2494:2654   */\ntag_29:\n    /* \"#utility.yul\":2553:2562   */\n  0x00\n    /* \"#utility.yul\":2586:2648   */\n  tag_75\n    /* \"#utility.yul\":2604:2647   */\n  tag_76\n    /* \"#utility.yul\":2613:2646   */\n  tag_77\n    /* \"#utility.yul\":2640:2645   */\n  dup5\n    /* \"#utility.yul\":2613:2646   */\n  tag_28\n  jump\t// in\ntag_77:\n    /* \"#utility.yul\":2604:2647   */\n  tag_13\n  jump\t// in\ntag_76:\n    /* \"#utility.yul\":2586:2648   */\n  tag_12\n  jump\t// in\ntag_75:\n    /* \"#utility.yul\":2573:2648   */\n  swap1\n  pop\n    /* \"#utility.yul\":2494:2654   */\n  swap2\n  swap1\n  pop\n  jump\t// out\n    /* \"#utility.yul\":2660:2817   */\ntag_30:\n    /* \"#utility.yul\":2764:2810   */\n  tag_79\n    /* \"#utility.yul\":2804:2809   */\n  dup2\n    /* \"#utility.yul\":2764:2810   */\n  tag_29\n  jump\t// in\ntag_79:\n    /* \"#utility.yul\":2759:2762   */\n  dup3\n    /* \"#utility.yul\":2752:2811   */\n  mstore\n    /* \"#utility.yul\":2660:2817   */\n  pop\n  pop\n  jump\t// out\n    /* \"#utility.yul\":2823:2909   */\ntag_31:\n    /* \"#utility.yul\":2869:2876   */\n  0x00\n    /* \"#utility.yul\":2898:2903   */\n  dup2\n    /* \"#utility.yul\":2887:2903   */\n  swap1\n  pop\n    /* \"#utility.yul\":2823:2909   */\n  swap2\n  swap1\n  pop\n  jump\t// out\n    /* \"#utility.yul\":2915:3075   */\ntag_32:\n    /* \"#utility.yul\":2974:2983   */\n  0x00\n    /* \"#utility.yul\":3007:3069   */\n  tag_82\n    /* \"#utility.yul\":3025:3068   */\n  tag_83\n    /* \"#utility.yul\":3034:3067   */\n  tag_84\n    /* \"#utility.yul\":3061:3066   */\n  dup5\n    /* \"#utility.yul\":3034:3067   */\n  tag_31\n  jump\t// in\ntag_84:\n    /* \"#utility.yul\":3025:3068   */\n  tag_13\n  jump\t// in\ntag_83:\n    /* \"#utility.yul\":3007:3069   */\n  tag_12\n  jump\t// in\ntag_82:\n    /* \"#utility.yul\":2994:3069   */\n  swap1\n  pop\n    /* \"#utility.yul\":2915:3075   */\n  swap2\n  swap1\n  pop\n  jump\t// out\n    /* \"#utility.yul\":3081:3238   */\ntag_33:\n    /* \"#utility.yul\":3185:3231   */\n  tag_86\n    /* \"#utility.yul\":3225:3230   */\n  dup2\n    /* \"#utility.yul\":3185:3231   */\n  tag_32\n  jump\t// in\ntag_86:\n    /* \"#utility.yul\":3180:3183   */\n  dup3\n    /* \"#utility.yul\":3173:3232   */\n  mstore\n    /* \"#utility.yul\":3081:3238   */\n  pop\n  pop\n  jump\t// out\n    /* \"#utility.yul\":3244:4767   */\ntag_5:\n    /* \"#utility.yul\":3705:3709   */\n  0x00\n    /* \"#utility.yul\":3743:3746   */\n  0x0140\n    /* \"#utility.yul\":3732:3741   */\n  dup3\n    /* \"#utility.yul\":3728:3747   */\n  add\n    /* \"#utility.yul\":3720:3747   */\n  swap1\n  pop\n    /* \"#utility.yul\":3757:3864   */\n  tag_88\n    /* \"#utility.yul\":3861:3862   */\n  0x00\n    /* \"#utility.yul\":3850:3859   */\n  dup4\n    /* \"#utility.yul\":3846:3863   */\n  add\n    /* \"#utility.yul\":3837:3843   */\n  dup14\n    /* \"#utility.yul\":3757:3864   */\n  tag_10\n  jump\t// in\ntag_88:\n    /* \"#utility.yul\":3874:3962   */\n  tag_89\n    /* \"#utility.yul\":3958:3960   */\n  0x20\n    /* \"#utility.yul\":3947:3956   */\n  dup4\n    /* \"#utility.yul\":3943:3961   */\n  add\n    /* \"#utility.yul\":3934:3940   */\n  dup13\n    /* \"#utility.yul\":3874:3962   */\n  tag_15\n  jump\t// in\ntag_89:\n    /* \"#utility.yul\":3972:4060   */\n  tag_90\n    /* \"#utility.yul\":4056:4058   */\n  0x40\n    /* \"#utility.yul\":4045:4054   */\n  dup4\n    /* \"#utility.yul\":4041:4059   */\n  add\n    /* \"#utility.yul\":4032:4038   */\n  dup12\n    /* \"#utility.yul\":3972:4060   */\n  tag_15\n  jump\t// in\ntag_90:\n    /* \"#utility.yul\":4070:4160   */\n  tag_91\n    /* \"#utility.yul\":4156:4158   */\n  0x60\n    /* \"#utility.yul\":4145:4154   */\n  dup4\n    /* \"#utility.yul\":4141:4159   */\n  add\n    /* \"#utility.yul\":4132:4138   */\n  dup11\n    /* \"#utility.yul\":4070:4160   */\n  tag_18\n  jump\t// in\ntag_91:\n    /* \"#utility.yul\":4170:4260   */\n  tag_92\n    /* \"#utility.yul\":4255:4258   */\n  0x80\n    /* \"#utility.yul\":4244:4253   */\n  dup4\n    /* \"#utility.yul\":4240:4259   */\n  add\n    /* \"#utility.yul\":4231:4237   */\n  dup10\n    /* \"#utility.yul\":4170:4260   */\n  tag_21\n  jump\t// in\ntag_92:\n    /* \"#utility.yul\":4270:4360   */\n  tag_93\n    /* \"#utility.yul\":4355:4358   */\n  0xa0\n    /* \"#utility.yul\":4344:4353   */\n  dup4\n    /* \"#utility.yul\":4340:4359   */\n  add\n    /* \"#utility.yul\":4331:4337   */\n  dup9\n    /* \"#utility.yul\":4270:4360   */\n  tag_24\n  jump\t// in\ntag_93:\n    /* \"#utility.yul\":4370:4460   */\n  tag_94\n    /* \"#utility.yul\":4455:4458   */\n  0xc0\n    /* \"#utility.yul\":4444:4453   */\n  dup4\n    /* \"#utility.yul\":4440:4459   */\n  add\n    /* \"#utility.yul\":4431:4437   */\n  dup8\n    /* \"#utility.yul\":4370:4460   */\n  tag_21\n  jump\t// in\ntag_94:\n    /* \"#utility.yul\":4470:4560   */\n  tag_95\n    /* \"#utility.yul\":4555:4558   */\n  0xe0\n    /* \"#utility.yul\":4544:4553   */\n  dup4\n    /* \"#utility.yul\":4540:4559   */\n  add\n    /* \"#utility.yul\":4531:4537   */\n  dup7\n    /* \"#utility.yul\":4470:4560   */\n  tag_27\n  jump\t// in\ntag_95:\n    /* \"#utility.yul\":4570:4660   */\n  tag_96\n    /* \"#utility.yul\":4655:4658   */\n  0x0100\n    /* \"#utility.yul\":4644:4653   */\n  dup4\n    /* \"#utility.yul\":4640:4659   */\n  add\n    /* \"#utility.yul\":4631:4637   */\n  dup6\n    /* \"#utility.yul\":4570:4660   */\n  tag_30\n  jump\t// in\ntag_96:\n    /* \"#utility.yul\":4670:4760   */\n  tag_97\n    /* \"#utility.yul\":4755:4758   */\n  0x0120\n    /* \"#utility.yul\":4744:4753   */\n  dup4\n    /* \"#utility.yul\":4740:4759   */\n  add\n    /* \"#utility.yul\":4731:4737   */\n  dup5\n    /* \"#utility.yul\":4670:4760   */\n  tag_33\n  jump\t// in\ntag_97:\n    /* \"#utility.yul\":3244:4767   */\n  swap12\n  swap11\n  pop\n  pop\n  pop\n  pop\n  pop\n  pop\n  pop\n  pop\n  pop\n  pop\n  pop\n  jump\t// out\n    /* \"BacteriaLabCore.sol\":7111:10649  contract BacteriaLabCore {... */\ntag_9:\n  dataSize(sub_0)\n  dup1\n  dataOffset(sub_0)\n  0x00\n  codecopy\n  0x00\n  return\nstop\n\nsub_0: assembly {\n        /* \"BacteriaLabCore.sol\":7111:10649  contract BacteriaLabCore {... */\n      mstore(0x40, 0x80)\n      callvalue\n      dup1\n      iszero\n      tag_1\n      jumpi\n      0x00\n      dup1\n      revert\n    tag_1:\n      pop\n      jumpi(tag_2, lt(calldatasize, 0x04))\n      shr(0xe0, calldataload(0x00))\n      dup1\n      0x6cbc2ded\n      gt\n      tag_13\n      jumpi\n      dup1\n      0x6cbc2ded\n      eq\n      tag_8\n      jumpi\n      dup1\n      0xa0a1f49b\n      eq\n      tag_9\n      jumpi\n      dup1\n      0xc6b05266\n      eq\n      tag_10\n      jumpi\n      dup1\n      0xd13f646c\n      eq\n      tag_11\n      jumpi\n      dup1\n      0xea17532e\n      eq\n      tag_12\n      jumpi\n      jump(tag_2)\n    tag_13:\n      dup1\n      0x1d8557d7\n      eq\n      tag_3\n      jumpi\n      dup1\n      0x218bd577\n      eq\n      tag_4\n      jumpi\n      dup1\n      0x2ef9f3e3\n      eq\n      tag_5\n      jumpi\n      dup1\n      0x34617288\n      eq\n      tag_6\n      jumpi\n      dup1\n      0x5d495aea\n      eq\n      tag_7\n      jumpi\n    tag_2:\n      0x00\n      dup1\n      revert\n        /* \"BacteriaLabCore.sol\":9290:9405  function updateState() public onlyAdmin isStart {... */\n    tag_3:\n      tag_14\n      tag_15\n      jump\t// in\n    tag_14:\n      stop\n        /* \"BacteriaLabCore.sol\":8908:9137  function enterGame() public isNotStart managerIsInit {... */\n    tag_4:\n      tag_16\n      tag_17\n      jump\t// in\n    tag_16:\n      stop\n        /* \"BacteriaLabCore.sol\":7276:7333  BacteriaLabGameManager.gameInitVarType public gameInitVar */\n    tag_5:\n      tag_18\n      tag_19\n      jump\t// in\n    tag_18:\n      mload(0x40)\n      tag_20\n      swap10\n      swap9\n      swap8\n      swap7\n      swap6\n      swap5\n      swap4\n      swap3\n      swap2\n      swap1\n      tag_21\n      jump\t// in\n    tag_20:\n      mload(0x40)\n      dup1\n      swap2\n      sub\n      swap1\n      return\n        /* \"BacteriaLabCore.sol\":8749:8900  function initializeGameManager() public onlyAdmin isNotStart {... */\n    tag_6:\n      tag_22\n      tag_23\n      jump\t// in\n    tag_22:\n      stop\n        /* \"BacteriaLabCore.sol\":9528:9668  function pickWinner() public onlyAdmin isEnd view returns(address) {... */\n    tag_7:\n      tag_24\n      tag_25\n      jump\t// in\n    tag_24:\n      mload(0x40)\n      tag_26\n      swap2\n      swap1\n      tag_27\n      jump\t// in\n    tag_26:\n      mload(0x40)\n      dup1\n      swap2\n      sub\n      swap1\n      return\n        /* \"BacteriaLabCore.sol\":9413:9520  function endGame() public onlyAdmin isStart {... */\n    tag_8:\n      tag_28\n      tag_29\n      jump\t// in\n    tag_28:\n      stop\n        /* \"BacteriaLabCore.sol\":9145:9282  function initializeGame() public onlyAdmin isNotStart {... */\n    tag_9:\n      tag_30\n      tag_31\n      jump\t// in\n    tag_30:\n      stop\n        /* \"BacteriaLabCore.sol\":7212:7269  BacteriaLabGameManager.gameManagerType public gameManager */\n    tag_10:\n      tag_32\n      tag_33\n      jump\t// in\n    tag_32:\n      mload(0x40)\n      tag_34\n      swap10\n      swap9\n      swap8\n      swap7\n      swap6\n      swap5\n      swap4\n      swap3\n      swap2\n      swap1\n      tag_35\n      jump\t// in\n    tag_34:\n      mload(0x40)\n      dup1\n      swap2\n      sub\n      swap1\n      return\n        /* \"BacteriaLabCore.sol\":9705:10153  function getColonyInfo(uint colonyID) public view... */\n    tag_11:\n      tag_36\n      0x04\n      dup1\n      calldatasize\n      sub\n      dup2\n      add\n      swap1\n      tag_37\n      swap2\n      swap1\n      tag_38\n      jump\t// in\n    tag_37:\n      tag_39\n      jump\t// in\n    tag_36:\n      mload(0x40)\n      tag_40\n      swap7\n      swap6\n      swap5\n      swap4\n      swap3\n      swap2\n      swap1\n      tag_41\n      jump\t// in\n    tag_40:\n      mload(0x40)\n      dup1\n      swap2\n      sub\n      swap1\n      return\n        /* \"BacteriaLabCore.sol\":10161:10646  function getPlayerInfo(uint playerID) public view... */\n    tag_12:\n      tag_42\n      0x04\n      dup1\n      calldatasize\n      sub\n      dup2\n      add\n      swap1\n      tag_43\n      swap2\n      swap1\n      tag_38\n      jump\t// in\n    tag_43:\n      tag_44\n      jump\t// in\n    tag_42:\n      mload(0x40)\n      tag_45\n      swap7\n      swap6\n      swap5\n      swap4\n      swap3\n      swap2\n      swap1\n      tag_46\n      jump\t// in\n    tag_45:\n      mload(0x40)\n      dup1\n      swap2\n      sub\n      swap1\n      return\n        /* \"BacteriaLabCore.sol\":9290:9405  function updateState() public onlyAdmin isStart {... */\n    tag_15:\n        /* \"BacteriaLabCore.sol\":8026:8037  gameManager */\n      0x00\n        /* \"BacteriaLabCore.sol\":8026:8050  gameManager.adminAddress */\n      dup1\n      add\n      0x00\n      swap1\n      sload\n      swap1\n      0x0100\n      exp\n      swap1\n      div\n      0xffffffffffffffffffffffffffffffffffffffff\n      and\n        /* \"BacteriaLabCore.sol\":8012:8050  msg.sender == gameManager.adminAddress */\n      0xffffffffffffffffffffffffffffffffffffffff\n      and\n        /* \"BacteriaLabCore.sol\":8012:8022  msg.sender */\n      caller\n        /* \"BacteriaLabCore.sol\":8012:8050  msg.sender == gameManager.adminAddress */\n      0xffffffffffffffffffffffffffffffffffffffff\n      and\n      eq\n        /* \"BacteriaLabCore.sol\":8004:8088  require(msg.sender == gameManager.adminAddress, \"Only admin can call this function\") */\n      tag_48\n      jumpi\n      mload(0x40)\n      0x08c379a000000000000000000000000000000000000000000000000000000000\n      dup2\n      mstore\n      0x04\n      add\n      tag_49\n      swap1\n      tag_50\n      jump\t// in\n    tag_49:\n      mload(0x40)\n      dup1\n      swap2\n      sub\n      swap1\n      revert\n    tag_48:\n        /* \"BacteriaLabCore.sol\":8456:8467  gameManager */\n      0x00\n        /* \"BacteriaLabCore.sol\":8456:8475  gameManager.isStart */\n      0x07\n      add\n      0x01\n      swap1\n      sload\n      swap1\n      0x0100\n      exp\n      swap1\n      div\n      0xff\n      and\n        /* \"BacteriaLabCore.sol\":8448:8534  require(gameManager.isStart, \"This function can only be called when game is on going\") */\n      tag_52\n      jumpi\n      mload(0x40)\n      0x08c379a000000000000000000000000000000000000000000000000000000000\n      dup2\n      mstore\n      0x04\n      add\n      tag_53\n      swap1\n      tag_54\n      jump\t// in\n    tag_53:\n      mload(0x40)\n      dup1\n      swap2\n      sub\n      swap1\n      revert\n    tag_52:\n        /* \"BacteriaLabCore.sol\":9349:9371  BacteriaLabGameManager */\n      linkerSymbol(\"baede851b1274e985b884bd9a841b6029f5c374c44c0c93d3180b37aa7d7b344\")\n        /* \"BacteriaLabCore.sol\":9349:9384  BacteriaLabGameManager._updateState */\n      0x7236b46d\n        /* \"BacteriaLabCore.sol\":9385:9396  gameManager */\n      0x00\n        /* \"BacteriaLabCore.sol\":9349:9397  BacteriaLabGameManager._updateState(gameManager) */\n      mload(0x40)\n      dup3\n      0xffffffff\n      and\n      0xe0\n      shl\n      dup2\n      mstore\n      0x04\n      add\n      tag_56\n      swap2\n      swap1\n      tag_57\n      jump\t// in\n    tag_56:\n      0x00\n      mload(0x40)\n      dup1\n      dup4\n      sub\n      dup2\n      dup7\n      dup1\n      extcodesize\n      iszero\n      dup1\n      iszero\n      tag_58\n      jumpi\n      0x00\n      dup1\n      revert\n    tag_58:\n      pop\n      gas\n      delegatecall\n      iszero\n      dup1\n      iszero\n      tag_60\n      jumpi\n      returndatasize\n      0x00\n      dup1\n      returndatacopy\n      revert(0x00, returndatasize)\n    tag_60:\n      pop\n      pop\n      pop\n      pop\n        /* \"BacteriaLabCore.sol\":9290:9405  function updateState() public onlyAdmin isStart {... */\n      jump\t// out\n        /* \"BacteriaLabCore.sol\":8908:9137  function enterGame() public isNotStart managerIsInit {... */\n    tag_17:\n        /* \"BacteriaLabCore.sol\":8315:8326  gameManager */\n      0x00\n        /* \"BacteriaLabCore.sol\":8315:8334  gameManager.isStart */\n      0x07\n      add\n      0x01\n      swap1\n      sload\n      swap1\n      0x0100\n      exp\n      swap1\n      div\n      0xff\n      and\n        /* \"BacteriaLabCore.sol\":8314:8334  !gameManager.isStart */\n      iszero\n        /* \"BacteriaLabCore.sol\":8306:8390  require(!gameManager.isStart, \"This function can only be called before game starts\") */\n      tag_62\n      jumpi\n      mload(0x40)\n      0x08c379a000000000000000000000000000000000000000000000000000000000\n      dup2\n      mstore\n      0x04\n      add\n      tag_63\n      swap1\n      tag_64\n      jump\t// in\n    tag_63:\n      mload(0x40)\n      dup1\n      swap2\n      sub\n      swap1\n      revert\n    tag_62:\n        /* \"BacteriaLabCore.sol\":8160:8171  gameManager */\n      0x00\n        /* \"BacteriaLabCore.sol\":8160:8178  gameManager.isInit */\n      0x07\n      add\n      0x00\n      swap1\n      sload\n      swap1\n      0x0100\n      exp\n      swap1\n      div\n      0xff\n      and\n        /* \"BacteriaLabCore.sol\":8152:8245  require(gameManager.isInit, \"This function can only be called after game manager initialize\") */\n      tag_66\n      jumpi\n      mload(0x40)\n      0x08c379a000000000000000000000000000000000000000000000000000000000\n      dup2\n      mstore\n      0x04\n      add\n      tag_67\n      swap1\n      tag_68\n      jump\t// in\n    tag_67:\n      mload(0x40)\n      dup1\n      swap2\n      sub\n      swap1\n      revert\n    tag_66:\n        /* \"BacteriaLabCore.sol\":9016:9021  false */\n      0x00\n        /* \"BacteriaLabCore.sol\":8980:9021  gameManager.isPlayer[msg.sender] == false */\n      iszero\n      iszero\n        /* \"BacteriaLabCore.sol\":8980:8991  gameManager */\n      0x00\n        /* \"BacteriaLabCore.sol\":8980:9000  gameManager.isPlayer */\n      0x09\n      add\n        /* \"BacteriaLabCore.sol\":8980:9012  gameManager.isPlayer[msg.sender] */\n      0x00\n        /* \"BacteriaLabCore.sol\":9001:9011  msg.sender */\n      caller\n        /* \"BacteriaLabCore.sol\":8980:9012  gameManager.isPlayer[msg.sender] */\n      0xffffffffffffffffffffffffffffffffffffffff\n      and\n      0xffffffffffffffffffffffffffffffffffffffff\n      and\n      dup2\n      mstore\n      0x20\n      add\n      swap1\n      dup2\n      mstore\n      0x20\n      add\n      0x00\n      keccak256\n      0x00\n      swap1\n      sload\n      swap1\n      0x0100\n      exp\n      swap1\n      div\n      0xff\n      and\n        /* \"BacteriaLabCore.sol\":8980:9021  gameManager.isPlayer[msg.sender] == false */\n      iszero\n      iszero\n      eq\n        /* \"BacteriaLabCore.sol\":8972:9059  require(gameManager.isPlayer[msg.sender] == false, \"Palyer has already enter the game\") */\n      tag_70\n      jumpi\n      mload(0x40)\n      0x08c379a000000000000000000000000000000000000000000000000000000000\n      dup2\n      mstore\n      0x04\n      add\n      tag_71\n      swap1\n      tag_72\n      jump\t// in\n    tag_71:\n      mload(0x40)\n      dup1\n      swap2\n      sub\n      swap1\n      revert\n    tag_70:\n        /* \"BacteriaLabCore.sol\":9070:9092  BacteriaLabGameManager */\n      linkerSymbol(\"baede851b1274e985b884bd9a841b6029f5c374c44c0c93d3180b37aa7d7b344\")\n        /* \"BacteriaLabCore.sol\":9070:9103  BacteriaLabGameManager._enterGame */\n      0x5efe7da3\n        /* \"BacteriaLabCore.sol\":9104:9115  gameManager */\n      0x00\n        /* \"BacteriaLabCore.sol\":9117:9128  gameInitVar */\n      0x0b\n        /* \"BacteriaLabCore.sol\":9070:9129  BacteriaLabGameManager._enterGame(gameManager, gameInitVar) */\n      mload(0x40)\n      dup4\n      0xffffffff\n      and\n      0xe0\n      shl\n      dup2\n      mstore\n      0x04\n      add\n      tag_73\n      swap3\n      swap2\n      swap1\n      tag_74\n      jump\t// in\n    tag_73:\n      0x00\n      mload(0x40)\n      dup1\n      dup4\n      sub\n      dup2\n      dup7\n      dup1\n      extcodesize\n      iszero\n      dup1\n      iszero\n      tag_75\n      jumpi\n      0x00\n      dup1\n      revert\n    tag_75:\n      pop\n      gas\n      delegatecall\n      iszero\n      dup1\n      iszero\n      tag_77\n      jumpi\n      returndatasize\n      0x00\n      dup1\n      returndatacopy\n      revert(0x00, returndatasize)\n    tag_77:\n      pop\n      pop\n      pop\n      pop\n        /* \"BacteriaLabCore.sol\":8908:9137  function enterGame() public isNotStart managerIsInit {... */\n      jump\t// out\n        /* \"BacteriaLabCore.sol\":7276:7333  BacteriaLabGameManager.gameInitVarType public gameInitVar */\n    tag_19:\n      0x0b\n      dup1\n      0x00\n      add\n      sload\n      swap1\n      dup1\n      0x01\n      add\n      sload\n      swap1\n      dup1\n      0x02\n      add\n      sload\n      swap1\n      dup1\n      0x03\n      add\n      sload\n      swap1\n      dup1\n      0x04\n      add\n      sload\n      swap1\n      dup1\n      0x05\n      add\n      sload\n      swap1\n      dup1\n      0x06\n      add\n      sload\n      swap1\n      dup1\n      0x07\n      add\n      sload\n      swap1\n      dup1\n      0x08\n      add\n      sload\n      swap1\n      pop\n      dup10\n      jump\t// out\n        /* \"BacteriaLabCore.sol\":8749:8900  function initializeGameManager() public onlyAdmin isNotStart {... */\n    tag_23:\n        /* \"BacteriaLabCore.sol\":8026:8037  gameManager */\n      0x00\n        /* \"BacteriaLabCore.sol\":8026:8050  gameManager.adminAddress */\n      dup1\n      add\n      0x00\n      swap1\n      sload\n      swap1\n      0x0100\n      exp\n      swap1\n      div\n      0xffffffffffffffffffffffffffffffffffffffff\n      and\n        /* \"BacteriaLabCore.sol\":8012:8050  msg.sender == gameManager.adminAddress */\n      0xffffffffffffffffffffffffffffffffffffffff\n      and\n        /* \"BacteriaLabCore.sol\":8012:8022  msg.sender */\n      caller\n        /* \"BacteriaLabCore.sol\":8012:8050  msg.sender == gameManager.adminAddress */\n      0xffffffffffffffffffffffffffffffffffffffff\n      and\n      eq\n        /* \"BacteriaLabCore.sol\":8004:8088  require(msg.sender == gameManager.adminAddress, \"Only admin can call this function\") */\n      tag_79\n      jumpi\n      mload(0x40)\n      0x08c379a000000000000000000000000000000000000000000000000000000000\n      dup2\n      mstore\n      0x04\n      add\n      tag_80\n      swap1\n      tag_50\n      jump\t// in\n    tag_80:\n      mload(0x40)\n      dup1\n      swap2\n      sub\n      swap1\n      revert\n    tag_79:\n        /* \"BacteriaLabCore.sol\":8315:8326  gameManager */\n      0x00\n        /* \"BacteriaLabCore.sol\":8315:8334  gameManager.isStart */\n      0x07\n      add\n      0x01\n      swap1\n      sload\n      swap1\n      0x0100\n      exp\n      swap1\n      div\n      0xff\n      and\n        /* \"BacteriaLabCore.sol\":8314:8334  !gameManager.isStart */\n      iszero\n        /* \"BacteriaLabCore.sol\":8306:8390  require(!gameManager.isStart, \"This function can only be called before game starts\") */\n      tag_82\n      jumpi\n      mload(0x40)\n      0x08c379a000000000000000000000000000000000000000000000000000000000\n      dup2\n      mstore\n      0x04\n      add\n      tag_83\n      swap1\n      tag_64\n      jump\t// in\n    tag_83:\n      mload(0x40)\n      dup1\n      swap2\n      sub\n      swap1\n      revert\n    tag_82:\n        /* \"BacteriaLabCore.sol\":8821:8843  BacteriaLabGameManager */\n      linkerSymbol(\"baede851b1274e985b884bd9a841b6029f5c374c44c0c93d3180b37aa7d7b344\")\n        /* \"BacteriaLabCore.sol\":8821:8866  BacteriaLabGameManager._initializeGameManager */\n      0x38077a76\n        /* \"BacteriaLabCore.sol\":8867:8878  gameManager */\n      0x00\n        /* \"BacteriaLabCore.sol\":8880:8891  gameInitVar */\n      0x0b\n        /* \"BacteriaLabCore.sol\":8821:8892  BacteriaLabGameManager._initializeGameManager(gameManager, gameInitVar) */\n      mload(0x40)\n      dup4\n      0xffffffff\n      and\n      0xe0\n      shl\n      dup2\n      mstore\n      0x04\n      add\n      tag_85\n      swap3\n      swap2\n      swap1\n      tag_74\n      jump\t// in\n    tag_85:\n      0x00\n      mload(0x40)\n      dup1\n      dup4\n      sub\n      dup2\n      dup7\n      dup1\n      extcodesize\n      iszero\n      dup1\n      iszero\n      tag_86\n      jumpi\n      0x00\n      dup1\n      revert\n    tag_86:\n      pop\n      gas\n      delegatecall\n      iszero\n      dup1\n      iszero\n      tag_88\n      jumpi\n      returndatasize\n      0x00\n      dup1\n      returndatacopy\n      revert(0x00, returndatasize)\n    tag_88:\n      pop\n      pop\n      pop\n      pop\n        /* \"BacteriaLabCore.sol\":8749:8900  function initializeGameManager() public onlyAdmin isNotStart {... */\n      jump\t// out\n        /* \"BacteriaLabCore.sol\":9528:9668  function pickWinner() public onlyAdmin isEnd view returns(address) {... */\n    tag_25:\n        /* \"BacteriaLabCore.sol\":9586:9593  address */\n      0x00\n        /* \"BacteriaLabCore.sol\":8026:8037  gameManager */\n      dup1\n        /* \"BacteriaLabCore.sol\":8026:8050  gameManager.adminAddress */\n      0x00\n      add\n      0x00\n      swap1\n      sload\n      swap1\n      0x0100\n      exp\n      swap1\n      div\n      0xffffffffffffffffffffffffffffffffffffffff\n      and\n        /* \"BacteriaLabCore.sol\":8012:8050  msg.sender == gameManager.adminAddress */\n      0xffffffffffffffffffffffffffffffffffffffff\n      and\n        /* \"BacteriaLabCore.sol\":8012:8022  msg.sender */\n      caller\n        /* \"BacteriaLabCore.sol\":8012:8050  msg.sender == gameManager.adminAddress */\n      0xffffffffffffffffffffffffffffffffffffffff\n      and\n      eq\n        /* \"BacteriaLabCore.sol\":8004:8088  require(msg.sender == gameManager.adminAddress, \"Only admin can call this function\") */\n      tag_90\n      jumpi\n      mload(0x40)\n      0x08c379a000000000000000000000000000000000000000000000000000000000\n      dup2\n      mstore\n      0x04\n      add\n      tag_91\n      swap1\n      tag_50\n      jump\t// in\n    tag_91:\n      mload(0x40)\n      dup1\n      swap2\n      sub\n      swap1\n      revert\n    tag_90:\n        /* \"BacteriaLabCore.sol\":8598:8609  gameManager */\n      0x00\n        /* \"BacteriaLabCore.sol\":8598:8615  gameManager.isEnd */\n      0x07\n      add\n      0x02\n      swap1\n      sload\n      swap1\n      0x0100\n      exp\n      swap1\n      div\n      0xff\n      and\n        /* \"BacteriaLabCore.sol\":8590:8668  require(gameManager.isEnd, \"This function can only be called after game ends\") */\n      tag_93\n      jumpi\n      mload(0x40)\n      0x08c379a000000000000000000000000000000000000000000000000000000000\n      dup2\n      mstore\n      0x04\n      add\n      tag_94\n      swap1\n      tag_95\n      jump\t// in\n    tag_94:\n      mload(0x40)\n      dup1\n      swap2\n      sub\n      swap1\n      revert\n    tag_93:\n        /* \"BacteriaLabCore.sol\":9613:9635  BacteriaLabGameManager */\n      linkerSymbol(\"baede851b1274e985b884bd9a841b6029f5c374c44c0c93d3180b37aa7d7b344\")\n        /* \"BacteriaLabCore.sol\":9613:9647  BacteriaLabGameManager._pickWinner */\n      0xae48c268\n        /* \"BacteriaLabCore.sol\":9648:9659  gameManager */\n      0x00\n        /* \"BacteriaLabCore.sol\":9613:9660  BacteriaLabGameManager._pickWinner(gameManager) */\n      mload(0x40)\n      dup3\n      0xffffffff\n      and\n      0xe0\n      shl\n      dup2\n      mstore\n      0x04\n      add\n      tag_97\n      swap2\n      swap1\n      tag_57\n      jump\t// in\n    tag_97:\n      0x20\n      mload(0x40)\n      dup1\n      dup4\n      sub\n      dup2\n      dup7\n      dup1\n      extcodesize\n      iszero\n      dup1\n      iszero\n      tag_98\n      jumpi\n      0x00\n      dup1\n      revert\n    tag_98:\n      pop\n      gas\n      delegatecall\n      iszero\n      dup1\n      iszero\n      tag_100\n      jumpi\n      returndatasize\n      0x00\n      dup1\n      returndatacopy\n      revert(0x00, returndatasize)\n    tag_100:\n      pop\n      pop\n      pop\n      pop\n      mload(0x40)\n      returndatasize\n      not(0x1f)\n      0x1f\n      dup3\n      add\n      and\n      dup3\n      add\n      dup1\n      0x40\n      mstore\n      pop\n      dup2\n      add\n      swap1\n      tag_101\n      swap2\n      swap1\n      tag_102\n      jump\t// in\n    tag_101:\n        /* \"BacteriaLabCore.sol\":9606:9660  return BacteriaLabGameManager._pickWinner(gameManager) */\n      swap1\n      pop\n        /* \"BacteriaLabCore.sol\":9528:9668  function pickWinner() public onlyAdmin isEnd view returns(address) {... */\n      swap1\n      jump\t// out\n        /* \"BacteriaLabCore.sol\":9413:9520  function endGame() public onlyAdmin isStart {... */\n    tag_29:\n        /* \"BacteriaLabCore.sol\":8026:8037  gameManager */\n      0x00\n        /* \"BacteriaLabCore.sol\":8026:8050  gameManager.adminAddress */\n      dup1\n      add\n      0x00\n      swap1\n      sload\n      swap1\n      0x0100\n      exp\n      swap1\n      div\n      0xffffffffffffffffffffffffffffffffffffffff\n      and\n        /* \"BacteriaLabCore.sol\":8012:8050  msg.sender == gameManager.adminAddress */\n      0xffffffffffffffffffffffffffffffffffffffff\n      and\n        /* \"BacteriaLabCore.sol\":8012:8022  msg.sender */\n      caller\n        /* \"BacteriaLabCore.sol\":8012:8050  msg.sender == gameManager.adminAddress */\n      0xffffffffffffffffffffffffffffffffffffffff\n      and\n      eq\n        /* \"BacteriaLabCore.sol\":8004:8088  require(msg.sender == gameManager.adminAddress, \"Only admin can call this function\") */\n      tag_104\n      jumpi\n      mload(0x40)\n      0x08c379a000000000000000000000000000000000000000000000000000000000\n      dup2\n      mstore\n      0x04\n      add\n      tag_105\n      swap1\n      tag_50\n      jump\t// in\n    tag_105:\n      mload(0x40)\n      dup1\n      swap2\n      sub\n      swap1\n      revert\n    tag_104:\n        /* \"BacteriaLabCore.sol\":8456:8467  gameManager */\n      0x00\n        /* \"BacteriaLabCore.sol\":8456:8475  gameManager.isStart */\n      0x07\n      add\n      0x01\n      swap1\n      sload\n      swap1\n      0x0100\n      exp\n      swap1\n      div\n      0xff\n      and\n        /* \"BacteriaLabCore.sol\":8448:8534  require(gameManager.isStart, \"This function can only be called when game is on going\") */\n      tag_107\n      jumpi\n      mload(0x40)\n      0x08c379a000000000000000000000000000000000000000000000000000000000\n      dup2\n      mstore\n      0x04\n      add\n      tag_108\n      swap1\n      tag_54\n      jump\t// in\n    tag_108:\n      mload(0x40)\n      dup1\n      swap2\n      sub\n      swap1\n      revert\n    tag_107:\n        /* \"BacteriaLabCore.sol\":9468:9490  BacteriaLabGameManager */\n      linkerSymbol(\"baede851b1274e985b884bd9a841b6029f5c374c44c0c93d3180b37aa7d7b344\")\n        /* \"BacteriaLabCore.sol\":9468:9499  BacteriaLabGameManager._endGame */\n      0x565c0fab\n        /* \"BacteriaLabCore.sol\":9500:9511  gameManager */\n      0x00\n        /* \"BacteriaLabCore.sol\":9468:9512  BacteriaLabGameManager._endGame(gameManager) */\n      mload(0x40)\n      dup3\n      0xffffffff\n      and\n      0xe0\n      shl\n      dup2\n      mstore\n      0x04\n      add\n      tag_110\n      swap2\n      swap1\n      tag_57\n      jump\t// in\n    tag_110:\n      0x00\n      mload(0x40)\n      dup1\n      dup4\n      sub\n      dup2\n      dup7\n      dup1\n      extcodesize\n      iszero\n      dup1\n      iszero\n      tag_111\n      jumpi\n      0x00\n      dup1\n      revert\n    tag_111:\n      pop\n      gas\n      delegatecall\n      iszero\n      dup1\n      iszero\n      tag_113\n      jumpi\n      returndatasize\n      0x00\n      dup1\n      returndatacopy\n      revert(0x00, returndatasize)\n    tag_113:\n      pop\n      pop\n      pop\n      pop\n        /* \"BacteriaLabCore.sol\":9413:9520  function endGame() public onlyAdmin isStart {... */\n      jump\t// out\n        /* \"BacteriaLabCore.sol\":9145:9282  function initializeGame() public onlyAdmin isNotStart {... */\n    tag_31:\n        /* \"BacteriaLabCore.sol\":8026:8037  gameManager */\n      0x00\n        /* \"BacteriaLabCore.sol\":8026:8050  gameManager.adminAddress */\n      dup1\n      add\n      0x00\n      swap1\n      sload\n      swap1\n      0x0100\n      exp\n      swap1\n      div\n      0xffffffffffffffffffffffffffffffffffffffff\n      and\n        /* \"BacteriaLabCore.sol\":8012:8050  msg.sender == gameManager.adminAddress */\n      0xffffffffffffffffffffffffffffffffffffffff\n      and\n        /* \"BacteriaLabCore.sol\":8012:8022  msg.sender */\n      caller\n        /* \"BacteriaLabCore.sol\":8012:8050  msg.sender == gameManager.adminAddress */\n      0xffffffffffffffffffffffffffffffffffffffff\n      and\n      eq\n        /* \"BacteriaLabCore.sol\":8004:8088  require(msg.sender == gameManager.adminAddress, \"Only admin can call this function\") */\n      tag_115\n      jumpi\n      mload(0x40)\n      0x08c379a000000000000000000000000000000000000000000000000000000000\n      dup2\n      mstore\n      0x04\n      add\n      tag_116\n      swap1\n      tag_50\n      jump\t// in\n    tag_116:\n      mload(0x40)\n      dup1\n      swap2\n      sub\n      swap1\n      revert\n    tag_115:\n        /* \"BacteriaLabCore.sol\":8315:8326  gameManager */\n      0x00\n        /* \"BacteriaLabCore.sol\":8315:8334  gameManager.isStart */\n      0x07\n      add\n      0x01\n      swap1\n      sload\n      swap1\n      0x0100\n      exp\n      swap1\n      div\n      0xff\n      and\n        /* \"BacteriaLabCore.sol\":8314:8334  !gameManager.isStart */\n      iszero\n        /* \"BacteriaLabCore.sol\":8306:8390  require(!gameManager.isStart, \"This function can only be called before game starts\") */\n      tag_118\n      jumpi\n      mload(0x40)\n      0x08c379a000000000000000000000000000000000000000000000000000000000\n      dup2\n      mstore\n      0x04\n      add\n      tag_119\n      swap1\n      tag_64\n      jump\t// in\n    tag_119:\n      mload(0x40)\n      dup1\n      swap2\n      sub\n      swap1\n      revert\n    tag_118:\n        /* \"BacteriaLabCore.sol\":9210:9232  BacteriaLabGameManager */\n      linkerSymbol(\"baede851b1274e985b884bd9a841b6029f5c374c44c0c93d3180b37aa7d7b344\")\n        /* \"BacteriaLabCore.sol\":9210:9248  BacteriaLabGameManager._initializeGame */\n      0x5b97f622\n        /* \"BacteriaLabCore.sol\":9249:9260  gameManager */\n      0x00\n        /* \"BacteriaLabCore.sol\":9262:9273  gameInitVar */\n      0x0b\n        /* \"BacteriaLabCore.sol\":9210:9274  BacteriaLabGameManager._initializeGame(gameManager, gameInitVar) */\n      mload(0x40)\n      dup4\n      0xffffffff\n      and\n      0xe0\n      shl\n      dup2\n      mstore\n      0x04\n      add\n      tag_121\n      swap3\n      swap2\n      swap1\n      tag_74\n      jump\t// in\n    tag_121:\n      0x00\n      mload(0x40)\n      dup1\n      dup4\n      sub\n      dup2\n      dup7\n      dup1\n      extcodesize\n      iszero\n      dup1\n      iszero\n      tag_122\n      jumpi\n      0x00\n      dup1\n      revert\n    tag_122:\n      pop\n      gas\n      delegatecall\n      iszero\n      dup1\n      iszero\n      tag_124\n      jumpi\n      returndatasize\n      0x00\n      dup1\n      returndatacopy\n      revert(0x00, returndatasize)\n    tag_124:\n      pop\n      pop\n      pop\n      pop\n        /* \"BacteriaLabCore.sol\":9145:9282  function initializeGame() public onlyAdmin isNotStart {... */\n      jump\t// out\n        /* \"BacteriaLabCore.sol\":7212:7269  BacteriaLabGameManager.gameManagerType public gameManager */\n    tag_33:\n      0x00\n      dup1\n      0x00\n      add\n      0x00\n      swap1\n      sload\n      swap1\n      0x0100\n      exp\n      swap1\n      div\n      0xffffffffffffffffffffffffffffffffffffffff\n      and\n      swap1\n      dup1\n      0x01\n      add\n      sload\n      swap1\n      dup1\n      0x02\n      add\n      sload\n      swap1\n      dup1\n      0x03\n      add\n      sload\n      swap1\n      dup1\n      0x04\n      add\n      sload\n      swap1\n      dup1\n      0x07\n      add\n      0x00\n      swap1\n      sload\n      swap1\n      0x0100\n      exp\n      swap1\n      div\n      0xff\n      and\n      swap1\n      dup1\n      0x07\n      add\n      0x01\n      swap1\n      sload\n      swap1\n      0x0100\n      exp\n      swap1\n      div\n      0xff\n      and\n      swap1\n      dup1\n      0x07\n      add\n      0x02\n      swap1\n      sload\n      swap1\n      0x0100\n      exp\n      swap1\n      div\n      0xff\n      and\n      swap1\n      dup1\n      0x0a\n      add\n      sload\n      swap1\n      pop\n      dup10\n      jump\t// out\n        /* \"BacteriaLabCore.sol\":9705:10153  function getColonyInfo(uint colonyID) public view... */\n    tag_39:\n        /* \"BacteriaLabCore.sol\":9768:9772  uint */\n      0x00\n        /* \"BacteriaLabCore.sol\":9774:9778  uint */\n      dup1\n        /* \"BacteriaLabCore.sol\":9780:9784  uint */\n      0x00\n        /* \"BacteriaLabCore.sol\":9786:9790  uint */\n      dup1\n        /* \"BacteriaLabCore.sol\":9792:9796  uint */\n      0x00\n        /* \"BacteriaLabCore.sol\":9798:9802  bool */\n      dup1\n        /* \"BacteriaLabCore.sol\":9842:9853  gameManager */\n      0x00\n        /* \"BacteriaLabCore.sol\":9842:9857  gameManager.map */\n      0x05\n      add\n        /* \"BacteriaLabCore.sol\":9842:9867  gameManager.map[colonyID] */\n      0x00\n        /* \"BacteriaLabCore.sol\":9858:9866  colonyID */\n      dup9\n        /* \"BacteriaLabCore.sol\":9842:9867  gameManager.map[colonyID] */\n      dup2\n      mstore\n      0x20\n      add\n      swap1\n      dup2\n      mstore\n      0x20\n      add\n      0x00\n      keccak256\n        /* \"BacteriaLabCore.sol\":9842:9870  gameManager.map[colonyID].id */\n      0x00\n      add\n      sload\n        /* \"BacteriaLabCore.sol\":9885:9896  gameManager */\n      0x00\n        /* \"BacteriaLabCore.sol\":9885:9900  gameManager.map */\n      0x05\n      add\n        /* \"BacteriaLabCore.sol\":9885:9910  gameManager.map[colonyID] */\n      0x00\n        /* \"BacteriaLabCore.sol\":9901:9909  colonyID */\n      dup10\n        /* \"BacteriaLabCore.sol\":9885:9910  gameManager.map[colonyID] */\n      dup2\n      mstore\n      0x20\n      add\n      swap1\n      dup2\n      mstore\n      0x20\n      add\n      0x00\n      keccak256\n        /* \"BacteriaLabCore.sol\":9885:9918  gameManager.map[colonyID].ownerID */\n      0x01\n      add\n      sload\n        /* \"BacteriaLabCore.sol\":9933:9944  gameManager */\n      0x00\n        /* \"BacteriaLabCore.sol\":9933:9948  gameManager.map */\n      0x05\n      add\n        /* \"BacteriaLabCore.sol\":9933:9958  gameManager.map[colonyID] */\n      0x00\n        /* \"BacteriaLabCore.sol\":9949:9957  colonyID */\n      dup11\n        /* \"BacteriaLabCore.sol\":9933:9958  gameManager.map[colonyID] */\n      dup2\n      mstore\n      0x20\n      add\n      swap1\n      dup2\n      mstore\n      0x20\n      add\n      0x00\n      keccak256\n        /* \"BacteriaLabCore.sol\":9933:9973  gameManager.map[colonyID].absorptionRate */\n      0x02\n      add\n      sload\n        /* \"BacteriaLabCore.sol\":9988:9999  gameManager */\n      0x00\n        /* \"BacteriaLabCore.sol\":9988:10003  gameManager.map */\n      0x05\n      add\n        /* \"BacteriaLabCore.sol\":9988:10013  gameManager.map[colonyID] */\n      0x00\n        /* \"BacteriaLabCore.sol\":10004:10012  colonyID */\n      dup12\n        /* \"BacteriaLabCore.sol\":9988:10013  gameManager.map[colonyID] */\n      dup2\n      mstore\n      0x20\n      add\n      swap1\n      dup2\n      mstore\n      0x20\n      add\n      0x00\n      keccak256\n        /* \"BacteriaLabCore.sol\":9988:10030  gameManager.map[colonyID].defenseNutrition */\n      0x03\n      add\n      sload\n        /* \"BacteriaLabCore.sol\":10045:10056  gameManager */\n      0x00\n        /* \"BacteriaLabCore.sol\":10045:10060  gameManager.map */\n      0x05\n      add\n        /* \"BacteriaLabCore.sol\":10045:10070  gameManager.map[colonyID] */\n      0x00\n        /* \"BacteriaLabCore.sol\":10061:10069  colonyID */\n      dup13\n        /* \"BacteriaLabCore.sol\":10045:10070  gameManager.map[colonyID] */\n      dup2\n      mstore\n      0x20\n      add\n      swap1\n      dup2\n      mstore\n      0x20\n      add\n      0x00\n      keccak256\n        /* \"BacteriaLabCore.sol\":10045:10086  gameManager.map[colonyID].occupyNutrition */\n      0x04\n      add\n      sload\n        /* \"BacteriaLabCore.sol\":10101:10112  gameManager */\n      0x00\n        /* \"BacteriaLabCore.sol\":10101:10116  gameManager.map */\n      0x05\n      add\n        /* \"BacteriaLabCore.sol\":10101:10126  gameManager.map[colonyID] */\n      0x00\n        /* \"BacteriaLabCore.sol\":10117:10125  colonyID */\n      dup14\n        /* \"BacteriaLabCore.sol\":10101:10126  gameManager.map[colonyID] */\n      dup2\n      mstore\n      0x20\n      add\n      swap1\n      dup2\n      mstore\n      0x20\n      add\n      0x00\n      keccak256\n        /* \"BacteriaLabCore.sol\":10101:10134  gameManager.map[colonyID].isOwned */\n      0x05\n      add\n      0x00\n      swap1\n      sload\n      swap1\n      0x0100\n      exp\n      swap1\n      div\n      0xff\n      and\n        /* \"BacteriaLabCore.sol\":9821:10145  return(... */\n      swap6\n      pop\n      swap6\n      pop\n      swap6\n      pop\n      swap6\n      pop\n      swap6\n      pop\n      swap6\n      pop\n        /* \"BacteriaLabCore.sol\":9705:10153  function getColonyInfo(uint colonyID) public view... */\n      swap2\n      swap4\n      swap6\n      pop\n      swap2\n      swap4\n      swap6\n      jump\t// out\n        /* \"BacteriaLabCore.sol\":10161:10646  function getPlayerInfo(uint playerID) public view... */\n    tag_44:\n        /* \"BacteriaLabCore.sol\":10224:10228  uint */\n      0x00\n        /* \"BacteriaLabCore.sol\":10230:10237  address */\n      dup1\n        /* \"BacteriaLabCore.sol\":10239:10243  uint */\n      0x00\n        /* \"BacteriaLabCore.sol\":10245:10249  uint */\n      dup1\n        /* \"BacteriaLabCore.sol\":10251:10255  uint */\n      0x00\n        /* \"BacteriaLabCore.sol\":10257:10261  uint */\n      dup1\n        /* \"BacteriaLabCore.sol\":10300:10311  gameManager */\n      0x00\n        /* \"BacteriaLabCore.sol\":10300:10322  gameManager.playerList */\n      0x06\n      add\n        /* \"BacteriaLabCore.sol\":10300:10332  gameManager.playerList[playerID] */\n      0x00\n        /* \"BacteriaLabCore.sol\":10323:10331  playerID */\n      dup9\n        /* \"BacteriaLabCore.sol\":10300:10332  gameManager.playerList[playerID] */\n      dup2\n      mstore\n      0x20\n      add\n      swap1\n      dup2\n      mstore\n      0x20\n      add\n      0x00\n      keccak256\n        /* \"BacteriaLabCore.sol\":10300:10335  gameManager.playerList[playerID].id */\n      0x00\n      add\n      sload\n        /* \"BacteriaLabCore.sol\":10350:10361  gameManager */\n      0x00\n        /* \"BacteriaLabCore.sol\":10350:10372  gameManager.playerList */\n      0x06\n      add\n        /* \"BacteriaLabCore.sol\":10350:10382  gameManager.playerList[playerID] */\n      0x00\n        /* \"BacteriaLabCore.sol\":10373:10381  playerID */\n      dup10\n        /* \"BacteriaLabCore.sol\":10350:10382  gameManager.playerList[playerID] */\n      dup2\n      mstore\n      0x20\n      add\n      swap1\n      dup2\n      mstore\n      0x20\n      add\n      0x00\n      keccak256\n        /* \"BacteriaLabCore.sol\":10350:10396  gameManager.playerList[playerID].playerAddress */\n      0x01\n      add\n      0x00\n      swap1\n      sload\n      swap1\n      0x0100\n      exp\n      swap1\n      div\n      0xffffffffffffffffffffffffffffffffffffffff\n      and\n        /* \"BacteriaLabCore.sol\":10411:10422  gameManager */\n      0x00\n        /* \"BacteriaLabCore.sol\":10411:10433  gameManager.playerList */\n      0x06\n      add\n        /* \"BacteriaLabCore.sol\":10411:10443  gameManager.playerList[playerID] */\n      0x00\n        /* \"BacteriaLabCore.sol\":10434:10442  playerID */\n      dup11\n        /* \"BacteriaLabCore.sol\":10411:10443  gameManager.playerList[playerID] */\n      dup2\n      mstore\n      0x20\n      add\n      swap1\n      dup2\n      mstore\n      0x20\n      add\n      0x00\n      keccak256\n        /* \"BacteriaLabCore.sol\":10411:10453  gameManager.playerList[playerID].nutrition */\n      0x02\n      add\n      sload\n        /* \"BacteriaLabCore.sol\":10468:10479  gameManager */\n      0x00\n        /* \"BacteriaLabCore.sol\":10468:10490  gameManager.playerList */\n      0x06\n      add\n        /* \"BacteriaLabCore.sol\":10468:10500  gameManager.playerList[playerID] */\n      0x00\n        /* \"BacteriaLabCore.sol\":10491:10499  playerID */\n      dup12\n        /* \"BacteriaLabCore.sol\":10468:10500  gameManager.playerList[playerID] */\n      dup2\n      mstore\n      0x20\n      add\n      swap1\n      dup2\n      mstore\n      0x20\n      add\n      0x00\n      keccak256\n        /* \"BacteriaLabCore.sol\":10468:10515  gameManager.playerList[playerID].absorptionRate */\n      0x03\n      add\n      sload\n        /* \"BacteriaLabCore.sol\":10530:10541  gameManager */\n      0x00\n        /* \"BacteriaLabCore.sol\":10530:10552  gameManager.playerList */\n      0x06\n      add\n        /* \"BacteriaLabCore.sol\":10530:10562  gameManager.playerList[playerID] */\n      0x00\n        /* \"BacteriaLabCore.sol\":10553:10561  playerID */\n      dup13\n        /* \"BacteriaLabCore.sol\":10530:10562  gameManager.playerList[playerID] */\n      dup2\n      mstore\n      0x20\n      add\n      swap1\n      dup2\n      mstore\n      0x20\n      add\n      0x00\n      keccak256\n        /* \"BacteriaLabCore.sol\":10530:10568  gameManager.playerList[playerID].color */\n      0x04\n      add\n      sload\n        /* \"BacteriaLabCore.sol\":10583:10594  gameManager */\n      0x00\n        /* \"BacteriaLabCore.sol\":10583:10605  gameManager.playerList */\n      0x06\n      add\n        /* \"BacteriaLabCore.sol\":10583:10615  gameManager.playerList[playerID] */\n      0x00\n        /* \"BacteriaLabCore.sol\":10606:10614  playerID */\n      dup14\n        /* \"BacteriaLabCore.sol\":10583:10615  gameManager.playerList[playerID] */\n      dup2\n      mstore\n      0x20\n      add\n      swap1\n      dup2\n      mstore\n      0x20\n      add\n      0x00\n      keccak256\n        /* \"BacteriaLabCore.sol\":10583:10627  gameManager.playerList[playerID].colonyCount */\n      0x06\n      add\n      sload\n        /* \"BacteriaLabCore.sol\":10279:10638  return(... */\n      swap6\n      pop\n      swap6\n      pop\n      swap6\n      pop\n      swap6\n      pop\n      swap6\n      pop\n      swap6\n      pop\n        /* \"BacteriaLabCore.sol\":10161:10646  function getPlayerInfo(uint playerID) public view... */\n      swap2\n      swap4\n      swap6\n      pop\n      swap2\n      swap4\n      swap6\n      jump\t// out\n        /* \"#utility.yul\":7:84   */\n    tag_127:\n        /* \"#utility.yul\":44:51   */\n      0x00\n        /* \"#utility.yul\":73:78   */\n      dup2\n        /* \"#utility.yul\":62:78   */\n      swap1\n      pop\n        /* \"#utility.yul\":7:84   */\n      swap2\n      swap1\n      pop\n      jump\t// out\n        /* \"#utility.yul\":90:208   */\n    tag_128:\n        /* \"#utility.yul\":177:201   */\n      tag_159\n        /* \"#utility.yul\":195:200   */\n      dup2\n        /* \"#utility.yul\":177:201   */\n      tag_127\n      jump\t// in\n    tag_159:\n        /* \"#utility.yul\":172:175   */\n      dup3\n        /* \"#utility.yul\":165:202   */\n      mstore\n        /* \"#utility.yul\":90:208   */\n      pop\n      pop\n      jump\t// out\n        /* \"#utility.yul\":214:1322   */\n    tag_21:\n        /* \"#utility.yul\":531:535   */\n      0x00\n        /* \"#utility.yul\":569:572   */\n      0x0120\n        /* \"#utility.yul\":558:567   */\n      dup3\n        /* \"#utility.yul\":554:573   */\n      add\n        /* \"#utility.yul\":546:573   */\n      swap1\n      pop\n        /* \"#utility.yul\":583:654   */\n      tag_161\n        /* \"#utility.yul\":651:652   */\n      0x00\n        /* \"#utility.yul\":640:649   */\n      dup4\n        /* \"#utility.yul\":636:653   */\n      add\n        /* \"#utility.yul\":627:633   */\n      dup13\n        /* \"#utility.yul\":583:654   */\n      tag_128\n      jump\t// in\n    tag_161:\n        /* \"#utility.yul\":664:736   */\n      tag_162\n        /* \"#utility.yul\":732:734   */\n      0x20\n        /* \"#utility.yul\":721:730   */\n      dup4\n        /* \"#utility.yul\":717:735   */\n      add\n        /* \"#utility.yul\":708:714   */\n      dup12\n        /* \"#utility.yul\":664:736   */\n      tag_128\n      jump\t// in\n    tag_162:\n        /* \"#utility.yul\":746:818   */\n      tag_163\n        /* \"#utility.yul\":814:816   */\n      0x40\n        /* \"#utility.yul\":803:812   */\n      dup4\n        /* \"#utility.yul\":799:817   */\n      add\n        /* \"#utility.yul\":790:796   */\n      dup11\n        /* \"#utility.yul\":746:818   */\n      tag_128\n      jump\t// in\n    tag_163:\n        /* \"#utility.yul\":828:900   */\n      tag_164\n        /* \"#utility.yul\":896:898   */\n      0x60\n        /* \"#utility.yul\":885:894   */\n      dup4\n        /* \"#utility.yul\":881:899   */\n      add\n        /* \"#utility.yul\":872:878   */\n      dup10\n        /* \"#utility.yul\":828:900   */\n      tag_128\n      jump\t// in\n    tag_164:\n        /* \"#utility.yul\":910:983   */\n      tag_165\n        /* \"#utility.yul\":978:981   */\n      0x80\n        /* \"#utility.yul\":967:976   */\n      dup4\n        /* \"#utility.yul\":963:982   */\n      add\n        /* \"#utility.yul\":954:960   */\n      dup9\n        /* \"#utility.yul\":910:983   */\n      tag_128\n      jump\t// in\n    tag_165:\n        /* \"#utility.yul\":993:1066   */\n      tag_166\n        /* \"#utility.yul\":1061:1064   */\n      0xa0\n        /* \"#utility.yul\":1050:1059   */\n      dup4\n        /* \"#utility.yul\":1046:1065   */\n      add\n        /* \"#utility.yul\":1037:1043   */\n      dup8\n        /* \"#utility.yul\":993:1066   */\n      tag_128\n      jump\t// in\n    tag_166:\n        /* \"#utility.yul\":1076:1149   */\n      tag_167\n        /* \"#utility.yul\":1144:1147   */\n      0xc0\n        /* \"#utility.yul\":1133:1142   */\n      dup4\n        /* \"#utility.yul\":1129:1148   */\n      add\n        /* \"#utility.yul\":1120:1126   */\n      dup7\n        /* \"#utility.yul\":1076:1149   */\n      tag_128\n      jump\t// in\n    tag_167:\n        /* \"#utility.yul\":1159:1232   */\n      tag_168\n        /* \"#utility.yul\":1227:1230   */\n      0xe0\n        /* \"#utility.yul\":1216:1225   */\n      dup4\n        /* \"#utility.yul\":1212:1231   */\n      add\n        /* \"#utility.yul\":1203:1209   */\n      dup6\n        /* \"#utility.yul\":1159:1232   */\n      tag_128\n      jump\t// in\n    tag_168:\n        /* \"#utility.yul\":1242:1315   */\n      tag_169\n        /* \"#utility.yul\":1310:1313   */\n      0x0100\n        /* \"#utility.yul\":1299:1308   */\n      dup4\n        /* \"#utility.yul\":1295:1314   */\n      add\n        /* \"#utility.yul\":1286:1292   */\n      dup5\n        /* \"#utility.yul\":1242:1315   */\n      tag_128\n      jump\t// in\n    tag_169:\n        /* \"#utility.yul\":214:1322   */\n      swap11\n      swap10\n      pop\n      pop\n      pop\n      pop\n      pop\n      pop\n      pop\n      pop\n      pop\n      pop\n      jump\t// out\n        /* \"#utility.yul\":1328:1454   */\n    tag_129:\n        /* \"#utility.yul\":1365:1372   */\n      0x00\n        /* \"#utility.yul\":1405:1447   */\n      0xffffffffffffffffffffffffffffffffffffffff\n        /* \"#utility.yul\":1398:1403   */\n      dup3\n        /* \"#utility.yul\":1394:1448   */\n      and\n        /* \"#utility.yul\":1383:1448   */\n      swap1\n      pop\n        /* \"#utility.yul\":1328:1454   */\n      swap2\n      swap1\n      pop\n      jump\t// out\n        /* \"#utility.yul\":1460:1556   */\n    tag_130:\n        /* \"#utility.yul\":1497:1504   */\n      0x00\n        /* \"#utility.yul\":1526:1550   */\n      tag_172\n        /* \"#utility.yul\":1544:1549   */\n      dup3\n        /* \"#utility.yul\":1526:1550   */\n      tag_129\n      jump\t// in\n    tag_172:\n        /* \"#utility.yul\":1515:1550   */\n      swap1\n      pop\n        /* \"#utility.yul\":1460:1556   */\n      swap2\n      swap1\n      pop\n      jump\t// out\n        /* \"#utility.yul\":1562:1680   */\n    tag_131:\n        /* \"#utility.yul\":1649:1673   */\n      tag_174\n        /* \"#utility.yul\":1667:1672   */\n      dup2\n        /* \"#utility.yul\":1649:1673   */\n      tag_130\n      jump\t// in\n    tag_174:\n        /* \"#utility.yul\":1644:1647   */\n      dup3\n        /* \"#utility.yul\":1637:1674   */\n      mstore\n        /* \"#utility.yul\":1562:1680   */\n      pop\n      pop\n      jump\t// out\n        /* \"#utility.yul\":1686:1908   */\n    tag_27:\n        /* \"#utility.yul\":1779:1783   */\n      0x00\n        /* \"#utility.yul\":1817:1819   */\n      0x20\n        /* \"#utility.yul\":1806:1815   */\n      dup3\n        /* \"#utility.yul\":1802:1820   */\n      add\n        /* \"#utility.yul\":1794:1820   */\n      swap1\n      pop\n        /* \"#utility.yul\":1830:1901   */\n      tag_176\n        /* \"#utility.yul\":1898:1899   */\n      0x00\n        /* \"#utility.yul\":1887:1896   */\n      dup4\n        /* \"#utility.yul\":1883:1900   */\n      add\n        /* \"#utility.yul\":1874:1880   */\n      dup5\n        /* \"#utility.yul\":1830:1901   */\n      tag_131\n      jump\t// in\n    tag_176:\n        /* \"#utility.yul\":1686:1908   */\n      swap3\n      swap2\n      pop\n      pop\n      jump\t// out\n        /* \"#utility.yul\":1914:2004   */\n    tag_132:\n        /* \"#utility.yul\":1948:1955   */\n      0x00\n        /* \"#utility.yul\":1991:1996   */\n      dup2\n        /* \"#utility.yul\":1984:1997   */\n      iszero\n        /* \"#utility.yul\":1977:1998   */\n      iszero\n        /* \"#utility.yul\":1966:1998   */\n      swap1\n      pop\n        /* \"#utility.yul\":1914:2004   */\n      swap2\n      swap1\n      pop\n      jump\t// out\n        /* \"#utility.yul\":2010:2119   */\n    tag_133:\n        /* \"#utility.yul\":2091:2112   */\n      tag_179\n        /* \"#utility.yul\":2106:2111   */\n      dup2\n        /* \"#utility.yul\":2091:2112   */\n      tag_132\n      jump\t// in\n    tag_179:\n        /* \"#utility.yul\":2086:2089   */\n      dup3\n        /* \"#utility.yul\":2079:2113   */\n      mstore\n        /* \"#utility.yul\":2010:2119   */\n      pop\n      pop\n      jump\t// out\n        /* \"#utility.yul\":2125:3197   */\n    tag_35:\n        /* \"#utility.yul\":2424:2428   */\n      0x00\n        /* \"#utility.yul\":2462:2465   */\n      0x0120\n        /* \"#utility.yul\":2451:2460   */\n      dup3\n        /* \"#utility.yul\":2447:2466   */\n      add\n        /* \"#utility.yul\":2439:2466   */\n      swap1\n      pop\n        /* \"#utility.yul\":2476:2547   */\n      tag_181\n        /* \"#utility.yul\":2544:2545   */\n      0x00\n        /* \"#utility.yul\":2533:2542   */\n      dup4\n        /* \"#utility.yul\":2529:2546   */\n      add\n        /* \"#utility.yul\":2520:2526   */\n      dup13\n        /* \"#utility.yul\":2476:2547   */\n      tag_131\n      jump\t// in\n    tag_181:\n        /* \"#utility.yul\":2557:2629   */\n      tag_182\n        /* \"#utility.yul\":2625:2627   */\n      0x20\n        /* \"#utility.yul\":2614:2623   */\n      dup4\n        /* \"#utility.yul\":2610:2628   */\n      add\n        /* \"#utility.yul\":2601:2607   */\n      dup12\n        /* \"#utility.yul\":2557:2629   */\n      tag_128\n      jump\t// in\n    tag_182:\n        /* \"#utility.yul\":2639:2711   */\n      tag_183\n        /* \"#utility.yul\":2707:2709   */\n      0x40\n        /* \"#utility.yul\":2696:2705   */\n      dup4\n        /* \"#utility.yul\":2692:2710   */\n      add\n        /* \"#utility.yul\":2683:2689   */\n      dup11\n        /* \"#utility.yul\":2639:2711   */\n      tag_128\n      jump\t// in\n    tag_183:\n        /* \"#utility.yul\":2721:2793   */\n      tag_184\n        /* \"#utility.yul\":2789:2791   */\n      0x60\n        /* \"#utility.yul\":2778:2787   */\n      dup4\n        /* \"#utility.yul\":2774:2792   */\n      add\n        /* \"#utility.yul\":2765:2771   */\n      dup10\n        /* \"#utility.yul\":2721:2793   */\n      tag_128\n      jump\t// in\n    tag_184:\n        /* \"#utility.yul\":2803:2876   */\n      tag_185\n        /* \"#utility.yul\":2871:2874   */\n      0x80\n        /* \"#utility.yul\":2860:2869   */\n      dup4\n        /* \"#utility.yul\":2856:2875   */\n      add\n        /* \"#utility.yul\":2847:2853   */\n      dup9\n        /* \"#utility.yul\":2803:2876   */\n      tag_128\n      jump\t// in\n    tag_185:\n        /* \"#utility.yul\":2886:2953   */\n      tag_186\n        /* \"#utility.yul\":2948:2951   */\n      0xa0\n        /* \"#utility.yul\":2937:2946   */\n      dup4\n        /* \"#utility.yul\":2933:2952   */\n      add\n        /* \"#utility.yul\":2924:2930   */\n      dup8\n        /* \"#utility.yul\":2886:2953   */\n      tag_133\n      jump\t// in\n    tag_186:\n        /* \"#utility.yul\":2963:3030   */\n      tag_187\n        /* \"#utility.yul\":3025:3028   */\n      0xc0\n        /* \"#utility.yul\":3014:3023   */\n      dup4\n        /* \"#utility.yul\":3010:3029   */\n      add\n        /* \"#utility.yul\":3001:3007   */\n      dup7\n        /* \"#utility.yul\":2963:3030   */\n      tag_133\n      jump\t// in\n    tag_187:\n        /* \"#utility.yul\":3040:3107   */\n      tag_188\n        /* \"#utility.yul\":3102:3105   */\n      0xe0\n        /* \"#utility.yul\":3091:3100   */\n      dup4\n        /* \"#utility.yul\":3087:3106   */\n      add\n        /* \"#utility.yul\":3078:3084   */\n      dup6\n        /* \"#utility.yul\":3040:3107   */\n      tag_133\n      jump\t// in\n    tag_188:\n        /* \"#utility.yul\":3117:3190   */\n      tag_189\n        /* \"#utility.yul\":3185:3188   */\n      0x0100\n        /* \"#utility.yul\":3174:3183   */\n      dup4\n        /* \"#utility.yul\":3170:3189   */\n      add\n        /* \"#utility.yul\":3161:3167   */\n      dup5\n        /* \"#utility.yul\":3117:3190   */\n      tag_128\n      jump\t// in\n    tag_189:\n        /* \"#utility.yul\":2125:3197   */\n      swap11\n      swap10\n      pop\n      pop\n      pop\n      pop\n      pop\n      pop\n      pop\n      pop\n      pop\n      pop\n      jump\t// out\n        /* \"#utility.yul\":3284:3401   */\n    tag_135:\n        /* \"#utility.yul\":3393:3394   */\n      0x00\n        /* \"#utility.yul\":3390:3391   */\n      dup1\n        /* \"#utility.yul\":3383:3395   */\n      revert\n        /* \"#utility.yul\":3530:3652   */\n    tag_137:\n        /* \"#utility.yul\":3603:3627   */\n      tag_194\n        /* \"#utility.yul\":3621:3626   */\n      dup2\n        /* \"#utility.yul\":3603:3627   */\n      tag_127\n      jump\t// in\n    tag_194:\n        /* \"#utility.yul\":3596:3601   */\n      dup2\n        /* \"#utility.yul\":3593:3628   */\n      eq\n        /* \"#utility.yul\":3583:3646   */\n      tag_195\n      jumpi\n        /* \"#utility.yul\":3642:3643   */\n      0x00\n        /* \"#utility.yul\":3639:3640   */\n      dup1\n        /* \"#utility.yul\":3632:3644   */\n      revert\n        /* \"#utility.yul\":3583:3646   */\n    tag_195:\n        /* \"#utility.yul\":3530:3652   */\n      pop\n      jump\t// out\n        /* \"#utility.yul\":3658:3797   */\n    tag_138:\n        /* \"#utility.yul\":3704:3709   */\n      0x00\n        /* \"#utility.yul\":3742:3748   */\n      dup2\n        /* \"#utility.yul\":3729:3749   */\n      calldataload\n        /* \"#utility.yul\":3720:3749   */\n      swap1\n      pop\n        /* \"#utility.yul\":3758:3791   */\n      tag_197\n        /* \"#utility.yul\":3785:3790   */\n      dup2\n        /* \"#utility.yul\":3758:3791   */\n      tag_137\n      jump\t// in\n    tag_197:\n        /* \"#utility.yul\":3658:3797   */\n      swap3\n      swap2\n      pop\n      pop\n      jump\t// out\n        /* \"#utility.yul\":3803:4132   */\n    tag_38:\n        /* \"#utility.yul\":3862:3868   */\n      0x00\n        /* \"#utility.yul\":3911:3913   */\n      0x20\n        /* \"#utility.yul\":3899:3908   */\n      dup3\n        /* \"#utility.yul\":3890:3897   */\n      dup5\n        /* \"#utility.yul\":3886:3909   */\n      sub\n        /* \"#utility.yul\":3882:3914   */\n      slt\n        /* \"#utility.yul\":3879:3998   */\n      iszero\n      tag_199\n      jumpi\n        /* \"#utility.yul\":3917:3996   */\n      tag_200\n      tag_135\n      jump\t// in\n    tag_200:\n        /* \"#utility.yul\":3879:3998   */\n    tag_199:\n        /* \"#utility.yul\":4037:4038   */\n      0x00\n        /* \"#utility.yul\":4062:4115   */\n      tag_201\n        /* \"#utility.yul\":4107:4114   */\n      dup5\n        /* \"#utility.yul\":4098:4104   */\n      dup3\n        /* \"#utility.yul\":4087:4096   */\n      dup6\n        /* \"#utility.yul\":4083:4105   */\n      add\n        /* \"#utility.yul\":4062:4115   */\n      tag_138\n      jump\t// in\n    tag_201:\n        /* \"#utility.yul\":4052:4115   */\n      swap2\n      pop\n        /* \"#utility.yul\":4008:4125   */\n      pop\n        /* \"#utility.yul\":3803:4132   */\n      swap3\n      swap2\n      pop\n      pop\n      jump\t// out\n        /* \"#utility.yul\":4138:4901   */\n    tag_41:\n        /* \"#utility.yul\":4365:4369   */\n      0x00\n        /* \"#utility.yul\":4403:4406   */\n      0xc0\n        /* \"#utility.yul\":4392:4401   */\n      dup3\n        /* \"#utility.yul\":4388:4407   */\n      add\n        /* \"#utility.yul\":4380:4407   */\n      swap1\n      pop\n        /* \"#utility.yul\":4417:4488   */\n      tag_203\n        /* \"#utility.yul\":4485:4486   */\n      0x00\n        /* \"#utility.yul\":4474:4483   */\n      dup4\n        /* \"#utility.yul\":4470:4487   */\n      add\n        /* \"#utility.yul\":4461:4467   */\n      dup10\n        /* \"#utility.yul\":4417:4488   */\n      tag_128\n      jump\t// in\n    tag_203:\n        /* \"#utility.yul\":4498:4570   */\n      tag_204\n        /* \"#utility.yul\":4566:4568   */\n      0x20\n        /* \"#utility.yul\":4555:4564   */\n      dup4\n        /* \"#utility.yul\":4551:4569   */\n      add\n        /* \"#utility.yul\":4542:4548   */\n      dup9\n        /* \"#utility.yul\":4498:4570   */\n      tag_128\n      jump\t// in\n    tag_204:\n        /* \"#utility.yul\":4580:4652   */\n      tag_205\n        /* \"#utility.yul\":4648:4650   */\n      0x40\n        /* \"#utility.yul\":4637:4646   */\n      dup4\n        /* \"#utility.yul\":4633:4651   */\n      add\n        /* \"#utility.yul\":4624:4630   */\n      dup8\n        /* \"#utility.yul\":4580:4652   */\n      tag_128\n      jump\t// in\n    tag_205:\n        /* \"#utility.yul\":4662:4734   */\n      tag_206\n        /* \"#utility.yul\":4730:4732   */\n      0x60\n        /* \"#utility.yul\":4719:4728   */\n      dup4\n        /* \"#utility.yul\":4715:4733   */\n      add\n        /* \"#utility.yul\":4706:4712   */\n      dup7\n        /* \"#utility.yul\":4662:4734   */\n      tag_128\n      jump\t// in\n    tag_206:\n        /* \"#utility.yul\":4744:4817   */\n      tag_207\n        /* \"#utility.yul\":4812:4815   */\n      0x80\n        /* \"#utility.yul\":4801:4810   */\n      dup4\n        /* \"#utility.yul\":4797:4816   */\n      add\n        /* \"#utility.yul\":4788:4794   */\n      dup6\n        /* \"#utility.yul\":4744:4817   */\n      tag_128\n      jump\t// in\n    tag_207:\n        /* \"#utility.yul\":4827:4894   */\n      tag_208\n        /* \"#utility.yul\":4889:4892   */\n      0xa0\n        /* \"#utility.yul\":4878:4887   */\n      dup4\n        /* \"#utility.yul\":4874:4893   */\n      add\n        /* \"#utility.yul\":4865:4871   */\n      dup5\n        /* \"#utility.yul\":4827:4894   */\n      tag_133\n      jump\t// in\n    tag_208:\n        /* \"#utility.yul\":4138:4901   */\n      swap8\n      swap7\n      pop\n      pop\n      pop\n      pop\n      pop\n      pop\n      pop\n      jump\t// out\n        /* \"#utility.yul\":4907:5682   */\n    tag_46:\n        /* \"#utility.yul\":5140:5144   */\n      0x00\n        /* \"#utility.yul\":5178:5181   */\n      0xc0\n        /* \"#utility.yul\":5167:5176   */\n      dup3\n        /* \"#utility.yul\":5163:5182   */\n      add\n        /* \"#utility.yul\":5155:5182   */\n      swap1\n      pop\n        /* \"#utility.yul\":5192:5263   */\n      tag_210\n        /* \"#utility.yul\":5260:5261   */\n      0x00\n        /* \"#utility.yul\":5249:5258   */\n      dup4\n        /* \"#utility.yul\":5245:5262   */\n      add\n        /* \"#utility.yul\":5236:5242   */\n      dup10\n        /* \"#utility.yul\":5192:5263   */\n      tag_128\n      jump\t// in\n    tag_210:\n        /* \"#utility.yul\":5273:5345   */\n      tag_211\n        /* \"#utility.yul\":5341:5343   */\n      0x20\n        /* \"#utility.yul\":5330:5339   */\n      dup4\n        /* \"#utility.yul\":5326:5344   */\n      add\n        /* \"#utility.yul\":5317:5323   */\n      dup9\n        /* \"#utility.yul\":5273:5345   */\n      tag_131\n      jump\t// in\n    tag_211:\n        /* \"#utility.yul\":5355:5427   */\n      tag_212\n        /* \"#utility.yul\":5423:5425   */\n      0x40\n        /* \"#utility.yul\":5412:5421   */\n      dup4\n        /* \"#utility.yul\":5408:5426   */\n      add\n        /* \"#utility.yul\":5399:5405   */\n      dup8\n        /* \"#utility.yul\":5355:5427   */\n      tag_128\n      jump\t// in\n    tag_212:\n        /* \"#utility.yul\":5437:5509   */\n      tag_213\n        /* \"#utility.yul\":5505:5507   */\n      0x60\n        /* \"#utility.yul\":5494:5503   */\n      dup4\n        /* \"#utility.yul\":5490:5508   */\n      add\n        /* \"#utility.yul\":5481:5487   */\n      dup7\n        /* \"#utility.yul\":5437:5509   */\n      tag_128\n      jump\t// in\n    tag_213:\n        /* \"#utility.yul\":5519:5592   */\n      tag_214\n        /* \"#utility.yul\":5587:5590   */\n      0x80\n        /* \"#utility.yul\":5576:5585   */\n      dup4\n        /* \"#utility.yul\":5572:5591   */\n      add\n        /* \"#utility.yul\":5563:5569   */\n      dup6\n        /* \"#utility.yul\":5519:5592   */\n      tag_128\n      jump\t// in\n    tag_214:\n        /* \"#utility.yul\":5602:5675   */\n      tag_215\n        /* \"#utility.yul\":5670:5673   */\n      0xa0\n        /* \"#utility.yul\":5659:5668   */\n      dup4\n        /* \"#utility.yul\":5655:5674   */\n      add\n        /* \"#utility.yul\":5646:5652   */\n      dup5\n        /* \"#utility.yul\":5602:5675   */\n      tag_128\n      jump\t// in\n    tag_215:\n        /* \"#utility.yul\":4907:5682   */\n      swap8\n      swap7\n      pop\n      pop\n      pop\n      pop\n      pop\n      pop\n      pop\n      jump\t// out\n        /* \"#utility.yul\":5688:5857   */\n    tag_139:\n        /* \"#utility.yul\":5772:5783   */\n      0x00\n        /* \"#utility.yul\":5806:5812   */\n      dup3\n        /* \"#utility.yul\":5801:5804   */\n      dup3\n        /* \"#utility.yul\":5794:5813   */\n      mstore\n        /* \"#utility.yul\":5846:5850   */\n      0x20\n        /* \"#utility.yul\":5841:5844   */\n      dup3\n        /* \"#utility.yul\":5837:5851   */\n      add\n        /* \"#utility.yul\":5822:5851   */\n      swap1\n      pop\n        /* \"#utility.yul\":5688:5857   */\n      swap3\n      swap2\n      pop\n      pop\n      jump\t// out\n        /* \"#utility.yul\":5863:6083   */\n    tag_140:\n        /* \"#utility.yul\":6003:6037   */\n      0x4f6e6c792061646d696e2063616e2063616c6c20746869732066756e6374696f\n        /* \"#utility.yul\":5999:6000   */\n      0x00\n        /* \"#utility.yul\":5991:5997   */\n      dup3\n        /* \"#utility.yul\":5987:6001   */\n      add\n        /* \"#utility.yul\":5980:6038   */\n      mstore\n        /* \"#utility.yul\":6072:6075   */\n      0x6e00000000000000000000000000000000000000000000000000000000000000\n        /* \"#utility.yul\":6067:6069   */\n      0x20\n        /* \"#utility.yul\":6059:6065   */\n      dup3\n        /* \"#utility.yul\":6055:6070   */\n      add\n        /* \"#utility.yul\":6048:6076   */\n      mstore\n        /* \"#utility.yul\":5863:6083   */\n      pop\n      jump\t// out\n        /* \"#utility.yul\":6089:6455   */\n    tag_141:\n        /* \"#utility.yul\":6231:6234   */\n      0x00\n        /* \"#utility.yul\":6252:6319   */\n      tag_219\n        /* \"#utility.yul\":6316:6318   */\n      0x21\n        /* \"#utility.yul\":6311:6314   */\n      dup4\n        /* \"#utility.yul\":6252:6319   */\n      tag_139\n      jump\t// in\n    tag_219:\n        /* \"#utility.yul\":6245:6319   */\n      swap2\n      pop\n        /* \"#utility.yul\":6328:6421   */\n      tag_220\n        /* \"#utility.yul\":6417:6420   */\n      dup3\n        /* \"#utility.yul\":6328:6421   */\n      tag_140\n      jump\t// in\n    tag_220:\n        /* \"#utility.yul\":6446:6448   */\n      0x40\n        /* \"#utility.yul\":6441:6444   */\n      dup3\n        /* \"#utility.yul\":6437:6449   */\n      add\n        /* \"#utility.yul\":6430:6449   */\n      swap1\n      pop\n        /* \"#utility.yul\":6089:6455   */\n      swap2\n      swap1\n      pop\n      jump\t// out\n        /* \"#utility.yul\":6461:6880   */\n    tag_50:\n        /* \"#utility.yul\":6627:6631   */\n      0x00\n        /* \"#utility.yul\":6665:6667   */\n      0x20\n        /* \"#utility.yul\":6654:6663   */\n      dup3\n        /* \"#utility.yul\":6650:6668   */\n      add\n        /* \"#utility.yul\":6642:6668   */\n      swap1\n      pop\n        /* \"#utility.yul\":6714:6723   */\n      dup2\n        /* \"#utility.yul\":6708:6712   */\n      dup2\n        /* \"#utility.yul\":6704:6724   */\n      sub\n        /* \"#utility.yul\":6700:6701   */\n      0x00\n        /* \"#utility.yul\":6689:6698   */\n      dup4\n        /* \"#utility.yul\":6685:6702   */\n      add\n        /* \"#utility.yul\":6678:6725   */\n      mstore\n        /* \"#utility.yul\":6742:6873   */\n      tag_222\n        /* \"#utility.yul\":6868:6872   */\n      dup2\n        /* \"#utility.yul\":6742:6873   */\n      tag_141\n      jump\t// in\n    tag_222:\n        /* \"#utility.yul\":6734:6873   */\n      swap1\n      pop\n        /* \"#utility.yul\":6461:6880   */\n      swap2\n      swap1\n      pop\n      jump\t// out\n        /* \"#utility.yul\":6886:7127   */\n    tag_142:\n        /* \"#utility.yul\":7026:7060   */\n      0x546869732066756e6374696f6e2063616e206f6e6c792062652063616c6c6564\n        /* \"#utility.yul\":7022:7023   */\n      0x00\n        /* \"#utility.yul\":7014:7020   */\n      dup3\n        /* \"#utility.yul\":7010:7024   */\n      add\n        /* \"#utility.yul\":7003:7061   */\n      mstore\n        /* \"#utility.yul\":7095:7119   */\n      0x207768656e2067616d65206973206f6e20676f696e6700000000000000000000\n        /* \"#utility.yul\":7090:7092   */\n      0x20\n        /* \"#utility.yul\":7082:7088   */\n      dup3\n        /* \"#utility.yul\":7078:7093   */\n      add\n        /* \"#utility.yul\":7071:7120   */\n      mstore\n        /* \"#utility.yul\":6886:7127   */\n      pop\n      jump\t// out\n        /* \"#utility.yul\":7133:7499   */\n    tag_143:\n        /* \"#utility.yul\":7275:7278   */\n      0x00\n        /* \"#utility.yul\":7296:7363   */\n      tag_225\n        /* \"#utility.yul\":7360:7362   */\n      0x36\n        /* \"#utility.yul\":7355:7358   */\n      dup4\n        /* \"#utility.yul\":7296:7363   */\n      tag_139\n      jump\t// in\n    tag_225:\n        /* \"#utility.yul\":7289:7363   */\n      swap2\n      pop\n        /* \"#utility.yul\":7372:7465   */\n      tag_226\n        /* \"#utility.yul\":7461:7464   */\n      dup3\n        /* \"#utility.yul\":7372:7465   */\n      tag_142\n      jump\t// in\n    tag_226:\n        /* \"#utility.yul\":7490:7492   */\n      0x40\n        /* \"#utility.yul\":7485:7488   */\n      dup3\n        /* \"#utility.yul\":7481:7493   */\n      add\n        /* \"#utility.yul\":7474:7493   */\n      swap1\n      pop\n        /* \"#utility.yul\":7133:7499   */\n      swap2\n      swap1\n      pop\n      jump\t// out\n        /* \"#utility.yul\":7505:7924   */\n    tag_54:\n        /* \"#utility.yul\":7671:7675   */\n      0x00\n        /* \"#utility.yul\":7709:7711   */\n      0x20\n        /* \"#utility.yul\":7698:7707   */\n      dup3\n        /* \"#utility.yul\":7694:7712   */\n      add\n        /* \"#utility.yul\":7686:7712   */\n      swap1\n      pop\n        /* \"#utility.yul\":7758:7767   */\n      dup2\n        /* \"#utility.yul\":7752:7756   */\n      dup2\n        /* \"#utility.yul\":7748:7768   */\n      sub\n        /* \"#utility.yul\":7744:7745   */\n      0x00\n        /* \"#utility.yul\":7733:7742   */\n      dup4\n        /* \"#utility.yul\":7729:7746   */\n      add\n        /* \"#utility.yul\":7722:7769   */\n      mstore\n        /* \"#utility.yul\":7786:7917   */\n      tag_228\n        /* \"#utility.yul\":7912:7916   */\n      dup2\n        /* \"#utility.yul\":7786:7917   */\n      tag_143\n      jump\t// in\n    tag_228:\n        /* \"#utility.yul\":7778:7917   */\n      swap1\n      pop\n        /* \"#utility.yul\":7505:7924   */\n      swap2\n      swap1\n      pop\n      jump\t// out\n        /* \"#utility.yul\":7930:8065   */\n    tag_144:\n        /* \"#utility.yul\":8053:8058   */\n      dup1\n        /* \"#utility.yul\":8048:8051   */\n      dup3\n        /* \"#utility.yul\":8041:8059   */\n      mstore\n        /* \"#utility.yul\":7930:8065   */\n      pop\n      pop\n      jump\t// out\n        /* \"#utility.yul\":8071:8365   */\n    tag_57:\n        /* \"#utility.yul\":8200:8204   */\n      0x00\n        /* \"#utility.yul\":8238:8240   */\n      0x20\n        /* \"#utility.yul\":8227:8236   */\n      dup3\n        /* \"#utility.yul\":8223:8241   */\n      add\n        /* \"#utility.yul\":8215:8241   */\n      swap1\n      pop\n        /* \"#utility.yul\":8251:8358   */\n      tag_231\n        /* \"#utility.yul\":8355:8356   */\n      0x00\n        /* \"#utility.yul\":8344:8353   */\n      dup4\n        /* \"#utility.yul\":8340:8357   */\n      add\n        /* \"#utility.yul\":8331:8337   */\n      dup5\n        /* \"#utility.yul\":8251:8358   */\n      tag_144\n      jump\t// in\n    tag_231:\n        /* \"#utility.yul\":8071:8365   */\n      swap3\n      swap2\n      pop\n      pop\n      jump\t// out\n        /* \"#utility.yul\":8371:8609   */\n    tag_145:\n        /* \"#utility.yul\":8511:8545   */\n      0x546869732066756e6374696f6e2063616e206f6e6c792062652063616c6c6564\n        /* \"#utility.yul\":8507:8508   */\n      0x00\n        /* \"#utility.yul\":8499:8505   */\n      dup3\n        /* \"#utility.yul\":8495:8509   */\n      add\n        /* \"#utility.yul\":8488:8546   */\n      mstore\n        /* \"#utility.yul\":8580:8601   */\n      0x206265666f72652067616d652073746172747300000000000000000000000000\n        /* \"#utility.yul\":8575:8577   */\n      0x20\n        /* \"#utility.yul\":8567:8573   */\n      dup3\n        /* \"#utility.yul\":8563:8578   */\n      add\n        /* \"#utility.yul\":8556:8602   */\n      mstore\n        /* \"#utility.yul\":8371:8609   */\n      pop\n      jump\t// out\n        /* \"#utility.yul\":8615:8981   */\n    tag_146:\n        /* \"#utility.yul\":8757:8760   */\n      0x00\n        /* \"#utility.yul\":8778:8845   */\n      tag_234\n        /* \"#utility.yul\":8842:8844   */\n      0x33\n        /* \"#utility.yul\":8837:8840   */\n      dup4\n        /* \"#utility.yul\":8778:8845   */\n      tag_139\n      jump\t// in\n    tag_234:\n        /* \"#utility.yul\":8771:8845   */\n      swap2\n      pop\n        /* \"#utility.yul\":8854:8947   */\n      tag_235\n        /* \"#utility.yul\":8943:8946   */\n      dup3\n        /* \"#utility.yul\":8854:8947   */\n      tag_145\n      jump\t// in\n    tag_235:\n        /* \"#utility.yul\":8972:8974   */\n      0x40\n        /* \"#utility.yul\":8967:8970   */\n      dup3\n        /* \"#utility.yul\":8963:8975   */\n      add\n        /* \"#utility.yul\":8956:8975   */\n      swap1\n      pop\n        /* \"#utility.yul\":8615:8981   */\n      swap2\n      swap1\n      pop\n      jump\t// out\n        /* \"#utility.yul\":8987:9406   */\n    tag_64:\n        /* \"#utility.yul\":9153:9157   */\n      0x00\n        /* \"#utility.yul\":9191:9193   */\n      0x20\n        /* \"#utility.yul\":9180:9189   */\n      dup3\n        /* \"#utility.yul\":9176:9194   */\n      add\n        /* \"#utility.yul\":9168:9194   */\n      swap1\n      pop\n        /* \"#utility.yul\":9240:9249   */\n      dup2\n        /* \"#utility.yul\":9234:9238   */\n      dup2\n        /* \"#utility.yul\":9230:9250   */\n      sub\n        /* \"#utility.yul\":9226:9227   */\n      0x00\n        /* \"#utility.yul\":9215:9224   */\n      dup4\n        /* \"#utility.yul\":9211:9228   */\n      add\n        /* \"#utility.yul\":9204:9251   */\n      mstore\n        /* \"#utility.yul\":9268:9399   */\n      tag_237\n        /* \"#utility.yul\":9394:9398   */\n      dup2\n        /* \"#utility.yul\":9268:9399   */\n      tag_146\n      jump\t// in\n    tag_237:\n        /* \"#utility.yul\":9260:9399   */\n      swap1\n      pop\n        /* \"#utility.yul\":8987:9406   */\n      swap2\n      swap1\n      pop\n      jump\t// out\n        /* \"#utility.yul\":9412:9661   */\n    tag_147:\n        /* \"#utility.yul\":9552:9586   */\n      0x546869732066756e6374696f6e2063616e206f6e6c792062652063616c6c6564\n        /* \"#utility.yul\":9548:9549   */\n      0x00\n        /* \"#utility.yul\":9540:9546   */\n      dup3\n        /* \"#utility.yul\":9536:9550   */\n      add\n        /* \"#utility.yul\":9529:9587   */\n      mstore\n        /* \"#utility.yul\":9621:9653   */\n      0x2061667465722067616d65206d616e6167657220696e697469616c697a650000\n        /* \"#utility.yul\":9616:9618   */\n      0x20\n        /* \"#utility.yul\":9608:9614   */\n      dup3\n        /* \"#utility.yul\":9604:9619   */\n      add\n        /* \"#utility.yul\":9597:9654   */\n      mstore\n        /* \"#utility.yul\":9412:9661   */\n      pop\n      jump\t// out\n        /* \"#utility.yul\":9667:10033   */\n    tag_148:\n        /* \"#utility.yul\":9809:9812   */\n      0x00\n        /* \"#utility.yul\":9830:9897   */\n      tag_240\n        /* \"#utility.yul\":9894:9896   */\n      0x3e\n        /* \"#utility.yul\":9889:9892   */\n      dup4\n        /* \"#utility.yul\":9830:9897   */\n      tag_139\n      jump\t// in\n    tag_240:\n        /* \"#utility.yul\":9823:9897   */\n      swap2\n      pop\n        /* \"#utility.yul\":9906:9999   */\n      tag_241\n        /* \"#utility.yul\":9995:9998   */\n      dup3\n        /* \"#utility.yul\":9906:9999   */\n      tag_147\n      jump\t// in\n    tag_241:\n        /* \"#utility.yul\":10024:10026   */\n      0x40\n        /* \"#utility.yul\":10019:10022   */\n      dup3\n        /* \"#utility.yul\":10015:10027   */\n      add\n        /* \"#utility.yul\":10008:10027   */\n      swap1\n      pop\n        /* \"#utility.yul\":9667:10033   */\n      swap2\n      swap1\n      pop\n      jump\t// out\n        /* \"#utility.yul\":10039:10458   */\n    tag_68:\n        /* \"#utility.yul\":10205:10209   */\n      0x00\n        /* \"#utility.yul\":10243:10245   */\n      0x20\n        /* \"#utility.yul\":10232:10241   */\n      dup3\n        /* \"#utility.yul\":10228:10246   */\n      add\n        /* \"#utility.yul\":10220:10246   */\n      swap1\n      pop\n        /* \"#utility.yul\":10292:10301   */\n      dup2\n        /* \"#utility.yul\":10286:10290   */\n      dup2\n        /* \"#utility.yul\":10282:10302   */\n      sub\n        /* \"#utility.yul\":10278:10279   */\n      0x00\n        /* \"#utility.yul\":10267:10276   */\n      dup4\n        /* \"#utility.yul\":10263:10280   */\n      add\n        /* \"#utility.yul\":10256:10303   */\n      mstore\n        /* \"#utility.yul\":10320:10451   */\n      tag_243\n        /* \"#utility.yul\":10446:10450   */\n      dup2\n        /* \"#utility.yul\":10320:10451   */\n      tag_148\n      jump\t// in\n    tag_243:\n        /* \"#utility.yul\":10312:10451   */\n      swap1\n      pop\n        /* \"#utility.yul\":10039:10458   */\n      swap2\n      swap1\n      pop\n      jump\t// out\n        /* \"#utility.yul\":10464:10684   */\n    tag_149:\n        /* \"#utility.yul\":10604:10638   */\n      0x50616c7965722068617320616c726561647920656e746572207468652067616d\n        /* \"#utility.yul\":10600:10601   */\n      0x00\n        /* \"#utility.yul\":10592:10598   */\n      dup3\n        /* \"#utility.yul\":10588:10602   */\n      add\n        /* \"#utility.yul\":10581:10639   */\n      mstore\n        /* \"#utility.yul\":10673:10676   */\n      0x6500000000000000000000000000000000000000000000000000000000000000\n        /* \"#utility.yul\":10668:10670   */\n      0x20\n        /* \"#utility.yul\":10660:10666   */\n      dup3\n        /* \"#utility.yul\":10656:10671   */\n      add\n        /* \"#utility.yul\":10649:10677   */\n      mstore\n        /* \"#utility.yul\":10464:10684   */\n      pop\n      jump\t// out\n        /* \"#utility.yul\":10690:11056   */\n    tag_150:\n        /* \"#utility.yul\":10832:10835   */\n      0x00\n        /* \"#utility.yul\":10853:10920   */\n      tag_246\n        /* \"#utility.yul\":10917:10919   */\n      0x21\n        /* \"#utility.yul\":10912:10915   */\n      dup4\n        /* \"#utility.yul\":10853:10920   */\n      tag_139\n      jump\t// in\n    tag_246:\n        /* \"#utility.yul\":10846:10920   */\n      swap2\n      pop\n        /* \"#utility.yul\":10929:11022   */\n      tag_247\n        /* \"#utility.yul\":11018:11021   */\n      dup3\n        /* \"#utility.yul\":10929:11022   */\n      tag_149\n      jump\t// in\n    tag_247:\n        /* \"#utility.yul\":11047:11049   */\n      0x40\n        /* \"#utility.yul\":11042:11045   */\n      dup3\n        /* \"#utility.yul\":11038:11050   */\n      add\n        /* \"#utility.yul\":11031:11050   */\n      swap1\n      pop\n        /* \"#utility.yul\":10690:11056   */\n      swap2\n      swap1\n      pop\n      jump\t// out\n        /* \"#utility.yul\":11062:11481   */\n    tag_72:\n        /* \"#utility.yul\":11228:11232   */\n      0x00\n        /* \"#utility.yul\":11266:11268   */\n      0x20\n        /* \"#utility.yul\":11255:11264   */\n      dup3\n        /* \"#utility.yul\":11251:11269   */\n      add\n        /* \"#utility.yul\":11243:11269   */\n      swap1\n      pop\n        /* \"#utility.yul\":11315:11324   */\n      dup2\n        /* \"#utility.yul\":11309:11313   */\n      dup2\n        /* \"#utility.yul\":11305:11325   */\n      sub\n        /* \"#utility.yul\":11301:11302   */\n      0x00\n        /* \"#utility.yul\":11290:11299   */\n      dup4\n        /* \"#utility.yul\":11286:11303   */\n      add\n        /* \"#utility.yul\":11279:11326   */\n      mstore\n        /* \"#utility.yul\":11343:11474   */\n      tag_249\n        /* \"#utility.yul\":11469:11473   */\n      dup2\n        /* \"#utility.yul\":11343:11474   */\n      tag_150\n      jump\t// in\n    tag_249:\n        /* \"#utility.yul\":11335:11474   */\n      swap1\n      pop\n        /* \"#utility.yul\":11062:11481   */\n      swap2\n      swap1\n      pop\n      jump\t// out\n        /* \"#utility.yul\":11487:11622   */\n    tag_151:\n        /* \"#utility.yul\":11610:11615   */\n      dup1\n        /* \"#utility.yul\":11605:11608   */\n      dup3\n        /* \"#utility.yul\":11598:11616   */\n      mstore\n        /* \"#utility.yul\":11487:11622   */\n      pop\n      pop\n      jump\t// out\n        /* \"#utility.yul\":11628:12096   */\n    tag_74:\n        /* \"#utility.yul\":11813:11817   */\n      0x00\n        /* \"#utility.yul\":11851:11853   */\n      0x40\n        /* \"#utility.yul\":11840:11849   */\n      dup3\n        /* \"#utility.yul\":11836:11854   */\n      add\n        /* \"#utility.yul\":11828:11854   */\n      swap1\n      pop\n        /* \"#utility.yul\":11864:11971   */\n      tag_252\n        /* \"#utility.yul\":11968:11969   */\n      0x00\n        /* \"#utility.yul\":11957:11966   */\n      dup4\n        /* \"#utility.yul\":11953:11970   */\n      add\n        /* \"#utility.yul\":11944:11950   */\n      dup6\n        /* \"#utility.yul\":11864:11971   */\n      tag_144\n      jump\t// in\n    tag_252:\n        /* \"#utility.yul\":11981:12089   */\n      tag_253\n        /* \"#utility.yul\":12085:12087   */\n      0x20\n        /* \"#utility.yul\":12074:12083   */\n      dup4\n        /* \"#utility.yul\":12070:12088   */\n      add\n        /* \"#utility.yul\":12061:12067   */\n      dup5\n        /* \"#utility.yul\":11981:12089   */\n      tag_151\n      jump\t// in\n    tag_253:\n        /* \"#utility.yul\":11628:12096   */\n      swap4\n      swap3\n      pop\n      pop\n      pop\n      jump\t// out\n        /* \"#utility.yul\":12102:12337   */\n    tag_152:\n        /* \"#utility.yul\":12242:12276   */\n      0x546869732066756e6374696f6e2063616e206f6e6c792062652063616c6c6564\n        /* \"#utility.yul\":12238:12239   */\n      0x00\n        /* \"#utility.yul\":12230:12236   */\n      dup3\n        /* \"#utility.yul\":12226:12240   */\n      add\n        /* \"#utility.yul\":12219:12277   */\n      mstore\n        /* \"#utility.yul\":12311:12329   */\n      0x2061667465722067616d6520656e647300000000000000000000000000000000\n        /* \"#utility.yul\":12306:12308   */\n      0x20\n        /* \"#utility.yul\":12298:12304   */\n      dup3\n        /* \"#utility.yul\":12294:12309   */\n      add\n        /* \"#utility.yul\":12287:12330   */\n      mstore\n        /* \"#utility.yul\":12102:12337   */\n      pop\n      jump\t// out\n        /* \"#utility.yul\":12343:12709   */\n    tag_153:\n        /* \"#utility.yul\":12485:12488   */\n      0x00\n        /* \"#utility.yul\":12506:12573   */\n      tag_256\n        /* \"#utility.yul\":12570:12572   */\n      0x30\n        /* \"#utility.yul\":12565:12568   */\n      dup4\n        /* \"#utility.yul\":12506:12573   */\n      tag_139\n      jump\t// in\n    tag_256:\n        /* \"#utility.yul\":12499:12573   */\n      swap2\n      pop\n        /* \"#utility.yul\":12582:12675   */\n      tag_257\n        /* \"#utility.yul\":12671:12674   */\n      dup3\n        /* \"#utility.yul\":12582:12675   */\n      tag_152\n      jump\t// in\n    tag_257:\n        /* \"#utility.yul\":12700:12702   */\n      0x40\n        /* \"#utility.yul\":12695:12698   */\n      dup3\n        /* \"#utility.yul\":12691:12703   */\n      add\n        /* \"#utility.yul\":12684:12703   */\n      swap1\n      pop\n        /* \"#utility.yul\":12343:12709   */\n      swap2\n      swap1\n      pop\n      jump\t// out\n        /* \"#utility.yul\":12715:13134   */\n    tag_95:\n        /* \"#utility.yul\":12881:12885   */\n      0x00\n        /* \"#utility.yul\":12919:12921   */\n      0x20\n        /* \"#utility.yul\":12908:12917   */\n      dup3\n        /* \"#utility.yul\":12904:12922   */\n      add\n        /* \"#utility.yul\":12896:12922   */\n      swap1\n      pop\n        /* \"#utility.yul\":12968:12977   */\n      dup2\n        /* \"#utility.yul\":12962:12966   */\n      dup2\n        /* \"#utility.yul\":12958:12978   */\n      sub\n        /* \"#utility.yul\":12954:12955   */\n      0x00\n        /* \"#utility.yul\":12943:12952   */\n      dup4\n        /* \"#utility.yul\":12939:12956   */\n      add\n        /* \"#utility.yul\":12932:12979   */\n      mstore\n        /* \"#utility.yul\":12996:13127   */\n      tag_259\n        /* \"#utility.yul\":13122:13126   */\n      dup2\n        /* \"#utility.yul\":12996:13127   */\n      tag_153\n      jump\t// in\n    tag_259:\n        /* \"#utility.yul\":12988:13127   */\n      swap1\n      pop\n        /* \"#utility.yul\":12715:13134   */\n      swap2\n      swap1\n      pop\n      jump\t// out\n        /* \"#utility.yul\":13140:13262   */\n    tag_154:\n        /* \"#utility.yul\":13213:13237   */\n      tag_261\n        /* \"#utility.yul\":13231:13236   */\n      dup2\n        /* \"#utility.yul\":13213:13237   */\n      tag_130\n      jump\t// in\n    tag_261:\n        /* \"#utility.yul\":13206:13211   */\n      dup2\n        /* \"#utility.yul\":13203:13238   */\n      eq\n        /* \"#utility.yul\":13193:13256   */\n      tag_262\n      jumpi\n        /* \"#utility.yul\":13252:13253   */\n      0x00\n        /* \"#utility.yul\":13249:13250   */\n      dup1\n        /* \"#utility.yul\":13242:13254   */\n      revert\n        /* \"#utility.yul\":13193:13256   */\n    tag_262:\n        /* \"#utility.yul\":13140:13262   */\n      pop\n      jump\t// out\n        /* \"#utility.yul\":13268:13411   */\n    tag_155:\n        /* \"#utility.yul\":13325:13330   */\n      0x00\n        /* \"#utility.yul\":13356:13362   */\n      dup2\n        /* \"#utility.yul\":13350:13363   */\n      mload\n        /* \"#utility.yul\":13341:13363   */\n      swap1\n      pop\n        /* \"#utility.yul\":13372:13405   */\n      tag_264\n        /* \"#utility.yul\":13399:13404   */\n      dup2\n        /* \"#utility.yul\":13372:13405   */\n      tag_154\n      jump\t// in\n    tag_264:\n        /* \"#utility.yul\":13268:13411   */\n      swap3\n      swap2\n      pop\n      pop\n      jump\t// out\n        /* \"#utility.yul\":13417:13768   */\n    tag_102:\n        /* \"#utility.yul\":13487:13493   */\n      0x00\n        /* \"#utility.yul\":13536:13538   */\n      0x20\n        /* \"#utility.yul\":13524:13533   */\n      dup3\n        /* \"#utility.yul\":13515:13522   */\n      dup5\n        /* \"#utility.yul\":13511:13534   */\n      sub\n        /* \"#utility.yul\":13507:13539   */\n      slt\n        /* \"#utility.yul\":13504:13623   */\n      iszero\n      tag_266\n      jumpi\n        /* \"#utility.yul\":13542:13621   */\n      tag_267\n      tag_135\n      jump\t// in\n    tag_267:\n        /* \"#utility.yul\":13504:13623   */\n    tag_266:\n        /* \"#utility.yul\":13662:13663   */\n      0x00\n        /* \"#utility.yul\":13687:13751   */\n      tag_268\n        /* \"#utility.yul\":13743:13750   */\n      dup5\n        /* \"#utility.yul\":13734:13740   */\n      dup3\n        /* \"#utility.yul\":13723:13732   */\n      dup6\n        /* \"#utility.yul\":13719:13741   */\n      add\n        /* \"#utility.yul\":13687:13751   */\n      tag_155\n      jump\t// in\n    tag_268:\n        /* \"#utility.yul\":13677:13751   */\n      swap2\n      pop\n        /* \"#utility.yul\":13633:13761   */\n      pop\n        /* \"#utility.yul\":13417:13768   */\n      swap3\n      swap2\n      pop\n      pop\n      jump\t// out\n\n    auxdata: 0xa264697066735822122025abcd7bd8f62e88dafb9f00c4bf03e1fd34a8bc3162b40699f80784adb05f3564736f6c63430008090033\n}\n","bytecode":{"linkReferences":{"BacteriaLabCore.sol":{"BacteriaLabGameManager":[{"length":20,"start":87},{"length":20,"start":1568},{"length":20,"start":1989},{"length":20,"start":2387},{"length":20,"start":2726},{"length":20,"start":3095},{"length":20,"start":3430}]}},"object":"60806040523480156200001157600080fd5b50336000800160006101000a81548173ffffffffffffffffffffffffffffffffffffffff021916908373ffffffffffffffffffffffffffffffffffffffff16021790555073__$baede851b1274e985b884bd9a841b6029f$__632d647a1c600b6003806064601460326014600d602560356040518b63ffffffff1660e01b8152600401620000a99a99989796959493929190620002d1565b60006040518083038186803b158015620000c257600080fd5b505af4158015620000d7573d6000803e3d6000fd5b5050505062000381565b8082525050565b6000819050919050565b6000819050919050565b6000819050919050565b600062000127620001216200011b84620000e8565b620000fc565b620000f2565b9050919050565b620001398162000106565b82525050565b6000819050919050565b60006200016a620001646200015e846200013f565b620000fc565b620000f2565b9050919050565b6200017c8162000149565b82525050565b6000819050919050565b6000620001ad620001a7620001a18462000182565b620000fc565b620000f2565b9050919050565b620001bf816200018c565b82525050565b6000819050919050565b6000620001f0620001ea620001e484620001c5565b620000fc565b620000f2565b9050919050565b6200020281620001cf565b82525050565b6000819050919050565b6000620002336200022d620002278462000208565b620000fc565b620000f2565b9050919050565b620002458162000212565b82525050565b6000819050919050565b600062000276620002706200026a846200024b565b620000fc565b620000f2565b9050919050565b620002888162000255565b82525050565b6000819050919050565b6000620002b9620002b3620002ad846200028e565b620000fc565b620000f2565b9050919050565b620002cb8162000298565b82525050565b600061014082019050620002e9600083018d620000e1565b620002f8602083018c6200012e565b62000307604083018b6200012e565b62000316606083018a62000171565b620003256080830189620001b4565b6200033460a0830188620001f7565b6200034360c0830187620001b4565b6200035260e08301866200023a565b620003626101008301856200027d565b62000372610120830184620002c0565b9b9a5050505050505050505050565b61138c80620003916000396000f3fe608060405234801561001057600080fd5b506004361061009e5760003560e01c80636cbc2ded116100665780636cbc2ded14610105578063a0a1f49b1461010f578063c6b0526614610119578063d13f646c1461013f578063ea17532e146101745761009e565b80631d8557d7146100a3578063218bd577146100ad5780632ef9f3e3146100b757806334617288146100dd5780635d495aea146100e7575b600080fd5b6100ab6101a9565b005b6100b56102f7565b005b6100bf61049f565b6040516100d499989796959493929190610c7d565b60405180910390f35b6100e56104db565b005b6100ef61062d565b6040516100fc9190610d4b565b60405180910390f35b61010d6107a0565b005b6101176108ee565b005b610121610a40565b60405161013699989796959493929190610d81565b60405180910390f35b61015960048036038101906101549190610e3f565b610ac3565b60405161016b96959493929190610e6c565b60405180910390f35b61018e60048036038101906101899190610e3f565b610b8a565b6040516101a096959493929190610ecd565b60405180910390f35b6000800160009054906101000a900473ffffffffffffffffffffffffffffffffffffffff1673ffffffffffffffffffffffffffffffffffffffff163373ffffffffffffffffffffffffffffffffffffffff161461023b576040517f08c379a000000000000000000000000000000000000000000000000000000000815260040161023290610fb1565b60405180910390fd5b600060070160019054906101000a900460ff1661028d576040517f08c379a000000000000000000000000000000000000000000000000000000000815260040161028490611043565b60405180910390fd5b73__$baede851b1274e985b884bd9a841b6029f$__637236b46d60006040518263ffffffff1660e01b81526004016102c5919061106a565b60006040518083038186803b1580156102dd57600080fd5b505af41580156102f1573d6000803e3d6000fd5b50505050565b600060070160019054906101000a900460ff161561034a576040517f08c379a0000000000000000000000000000000000000000000000000000000008152600401610341906110f7565b60405180910390fd5b600060070160009054906101000a900460ff1661039c576040517f08c379a000000000000000000000000000000000000000000000000000000000815260040161039390611189565b60405180910390fd5b60001515600060090160003373ffffffffffffffffffffffffffffffffffffffff1673ffffffffffffffffffffffffffffffffffffffff16815260200190815260200160002060009054906101000a900460ff16151514610432576040517f08c379a00000000000000000000000000000000000000000000000000000000081526004016104299061121b565b60405180910390fd5b73__$baede851b1274e985b884bd9a841b6029f$__635efe7da36000600b6040518363ffffffff1660e01b815260040161046d929190611242565b60006040518083038186803b15801561048557600080fd5b505af4158015610499573d6000803e3d6000fd5b50505050565b600b8060000154908060010154908060020154908060030154908060040154908060050154908060060154908060070154908060080154905089565b6000800160009054906101000a900473ffffffffffffffffffffffffffffffffffffffff1673ffffffffffffffffffffffffffffffffffffffff163373ffffffffffffffffffffffffffffffffffffffff161461056d576040517f08c379a000000000000000000000000000000000000000000000000000000000815260040161056490610fb1565b60405180910390fd5b600060070160019054906101000a900460ff16156105c0576040517f08c379a00000000000000000000000000000000000000000000000000000000081526004016105b7906110f7565b60405180910390fd5b73__$baede851b1274e985b884bd9a841b6029f$__6338077a766000600b6040518363ffffffff1660e01b81526004016105fb929190611242565b60006040518083038186803b15801561061357600080fd5b505af4158015610627573d6000803e3d6000fd5b50505050565b60008060000160009054906101000a900473ffffffffffffffffffffffffffffffffffffffff1673ffffffffffffffffffffffffffffffffffffffff163373ffffffffffffffffffffffffffffffffffffffff16146106c1576040517f08c379a00000000000000000000000000000000000000000000000000000000081526004016106b890610fb1565b60405180910390fd5b600060070160029054906101000a900460ff16610713576040517f08c379a000000000000000000000000000000000000000000000000000000000815260040161070a906112dd565b60405180910390fd5b73__$baede851b1274e985b884bd9a841b6029f$__63ae48c26860006040518263ffffffff1660e01b815260040161074b919061106a565b60206040518083038186803b15801561076357600080fd5b505af4158015610777573d6000803e3d6000fd5b505050506040513d601f19601f8201168201806040525081019061079b9190611329565b905090565b6000800160009054906101000a900473ffffffffffffffffffffffffffffffffffffffff1673ffffffffffffffffffffffffffffffffffffffff163373ffffffffffffffffffffffffffffffffffffffff1614610832576040517f08c379a000000000000000000000000000000000000000000000000000000000815260040161082990610fb1565b60405180910390fd5b600060070160019054906101000a900460ff16610884576040517f08c379a000000000000000000000000000000000000000000000000000000000815260040161087b90611043565b60405180910390fd5b73__$baede851b1274e985b884bd9a841b6029f$__63565c0fab60006040518263ffffffff1660e01b81526004016108bc919061106a565b60006040518083038186803b1580156108d457600080fd5b505af41580156108e8573d6000803e3d6000fd5b50505050565b6000800160009054906101000a900473ffffffffffffffffffffffffffffffffffffffff1673ffffffffffffffffffffffffffffffffffffffff163373ffffffffffffffffffffffffffffffffffffffff1614610980576040517f08c379a000000000000000000000000000000000000000000000000000000000815260040161097790610fb1565b60405180910390fd5b600060070160019054906101000a900460ff16156109d3576040517f08c379a00000000000000000000000000000000000000000000000000000000081526004016109ca906110f7565b60405180910390fd5b73__$baede851b1274e985b884bd9a841b6029f$__635b97f6226000600b6040518363ffffffff1660e01b8152600401610a0e929190611242565b60006040518083038186803b158015610a2657600080fd5b505af4158015610a3a573d6000803e3d6000fd5b50505050565b60008060000160009054906101000a900473ffffffffffffffffffffffffffffffffffffffff16908060010154908060020154908060030154908060040154908060070160009054906101000a900460ff16908060070160019054906101000a900460ff16908060070160029054906101000a900460ff169080600a0154905089565b60008060008060008060006005016000888152602001908152602001600020600001546000600501600089815260200190815260200160002060010154600060050160008a815260200190815260200160002060020154600060050160008b815260200190815260200160002060030154600060050160008c815260200190815260200160002060040154600060050160008d815260200190815260200160002060050160009054906101000a900460ff1695509550955095509550955091939550919395565b60008060008060008060006006016000888152602001908152602001600020600001546000600601600089815260200190815260200160002060010160009054906101000a900473ffffffffffffffffffffffffffffffffffffffff16600060060160008a815260200190815260200160002060020154600060060160008b815260200190815260200160002060030154600060060160008c815260200190815260200160002060040154600060060160008d81526020019081526020016000206006015495509550955095509550955091939550919395565b6000819050919050565b610c7781610c64565b82525050565b600061012082019050610c93600083018c610c6e565b610ca0602083018b610c6e565b610cad604083018a610c6e565b610cba6060830189610c6e565b610cc76080830188610c6e565b610cd460a0830187610c6e565b610ce160c0830186610c6e565b610cee60e0830185610c6e565b610cfc610100830184610c6e565b9a9950505050505050505050565b600073ffffffffffffffffffffffffffffffffffffffff82169050919050565b6000610d3582610d0a565b9050919050565b610d4581610d2a565b82525050565b6000602082019050610d606000830184610d3c565b92915050565b60008115159050919050565b610d7b81610d66565b82525050565b600061012082019050610d97600083018c610d3c565b610da4602083018b610c6e565b610db1604083018a610c6e565b610dbe6060830189610c6e565b610dcb6080830188610c6e565b610dd860a0830187610d72565b610de560c0830186610d72565b610df260e0830185610d72565b610e00610100830184610c6e565b9a9950505050505050505050565b600080fd5b610e1c81610c64565b8114610e2757600080fd5b50565b600081359050610e3981610e13565b92915050565b600060208284031215610e5557610e54610e0e565b5b6000610e6384828501610e2a565b91505092915050565b600060c082019050610e816000830189610c6e565b610e8e6020830188610c6e565b610e9b6040830187610c6e565b610ea86060830186610c6e565b610eb56080830185610c6e565b610ec260a0830184610d72565b979650505050505050565b600060c082019050610ee26000830189610c6e565b610eef6020830188610d3c565b610efc6040830187610c6e565b610f096060830186610c6e565b610f166080830185610c6e565b610f2360a0830184610c6e565b979650505050505050565b600082825260208201905092915050565b7f4f6e6c792061646d696e2063616e2063616c6c20746869732066756e6374696f60008201527f6e00000000000000000000000000000000000000000000000000000000000000602082015250565b6000610f9b602183610f2e565b9150610fa682610f3f565b604082019050919050565b60006020820190508181036000830152610fca81610f8e565b9050919050565b7f546869732066756e6374696f6e2063616e206f6e6c792062652063616c6c656460008201527f207768656e2067616d65206973206f6e20676f696e6700000000000000000000602082015250565b600061102d603683610f2e565b915061103882610fd1565b604082019050919050565b6000602082019050818103600083015261105c81611020565b9050919050565b8082525050565b600060208201905061107f6000830184611063565b92915050565b7f546869732066756e6374696f6e2063616e206f6e6c792062652063616c6c656460008201527f206265666f72652067616d652073746172747300000000000000000000000000602082015250565b60006110e1603383610f2e565b91506110ec82611085565b604082019050919050565b60006020820190508181036000830152611110816110d4565b9050919050565b7f546869732066756e6374696f6e2063616e206f6e6c792062652063616c6c656460008201527f2061667465722067616d65206d616e6167657220696e697469616c697a650000602082015250565b6000611173603e83610f2e565b915061117e82611117565b604082019050919050565b600060208201905081810360008301526111a281611166565b9050919050565b7f50616c7965722068617320616c726561647920656e746572207468652067616d60008201527f6500000000000000000000000000000000000000000000000000000000000000602082015250565b6000611205602183610f2e565b9150611210826111a9565b604082019050919050565b60006020820190508181036000830152611234816111f8565b9050919050565b8082525050565b60006040820190506112576000830185611063565b611264602083018461123b565b9392505050565b7f546869732066756e6374696f6e2063616e206f6e6c792062652063616c6c656460008201527f2061667465722067616d6520656e647300000000000000000000000000000000602082015250565b60006112c7603083610f2e565b91506112d28261126b565b604082019050919050565b600060208201905081810360008301526112f6816112ba565b9050919050565b61130681610d2a565b811461131157600080fd5b50565b600081519050611323816112fd565b92915050565b60006020828403121561133f5761133e610e0e565b5b600061134d84828501611314565b9150509291505056fea264697066735822122025abcd7bd8f62e88dafb9f00c4bf03e1fd34a8bc3162b40699f80784adb05f3564736f6c63430008090033","opcodes":"PUSH1 0x80 PUSH1 0x40 MSTORE CALLVALUE DUP1 ISZERO PUSH3 0x11 JUMPI PUSH1 0x0 DUP1 REVERT JUMPDEST POP CALLER PUSH1 0x0 DUP1 ADD PUSH1 0x0 PUSH2 0x100 EXP DUP2 SLOAD DUP2 PUSH20 0xFFFFFFFFFFFFFFFFFFFFFFFFFFFFFFFFFFFFFFFF MUL NOT AND SWAP1 DUP4 PUSH20 0xFFFFFFFFFFFFFFFFFFFFFFFFFFFFFFFFFFFFFFFF AND MUL OR SWAP1 SSTORE POP PUSH20 0x0 PUSH4 0x2D647A1C PUSH1 0xB PUSH1 0x3 DUP1 PUSH1 0x64 PUSH1 0x14 PUSH1 0x32 PUSH1 0x14 PUSH1 0xD PUSH1 0x25 PUSH1 0x35 PUSH1 0x40 MLOAD DUP12 PUSH4 0xFFFFFFFF AND PUSH1 0xE0 SHL DUP2 MSTORE PUSH1 0x4 ADD PUSH3 0xA9 SWAP11 SWAP10 SWAP9 SWAP8 SWAP7 SWAP6 SWAP5 SWAP4 SWAP3 SWAP2 SWAP1 PUSH3 0x2D1 JUMP JUMPDEST PUSH1 0x0 PUSH1 0x40 MLOAD DUP1 DUP4 SUB DUP2 DUP7 DUP1 EXTCODESIZE ISZERO DUP1 ISZERO PUSH3 0xC2 JUMPI PUSH1 0x0 DUP1 REVERT JUMPDEST POP GAS DELEGATECALL ISZERO DUP1 ISZERO PUSH3 0xD7 JUMPI RETURNDATASIZE PUSH1 0x0 DUP1 RETURNDATACOPY RETURNDATASIZE PUSH1 0x0 REVERT JUMPDEST POP POP POP POP PUSH3 0x381 JUMP JUMPDEST DUP1 DUP3 MSTORE POP POP JUMP JUMPDEST PUSH1 0x0 DUP2 SWAP1 POP SWAP2 SWAP1 POP JUMP JUMPDEST PUSH1 0x0 DUP2 SWAP1 POP SWAP2 SWAP1 POP JUMP JUMPDEST PUSH1 0x0 DUP2 SWAP1 POP SWAP2 SWAP1 POP JUMP JUMPDEST PUSH1 0x0 PUSH3 0x127 PUSH3 0x121 PUSH3 0x11B DUP5 PUSH3 0xE8 JUMP JUMPDEST PUSH3 0xFC JUMP JUMPDEST PUSH3 0xF2 JUMP JUMPDEST SWAP1 POP SWAP2 SWAP1 POP JUMP JUMPDEST PUSH3 0x139 DUP2 PUSH3 0x106 JUMP JUMPDEST DUP3 MSTORE POP POP JUMP JUMPDEST PUSH1 0x0 DUP2 SWAP1 POP SWAP2 SWAP1 POP JUMP JUMPDEST PUSH1 0x0 PUSH3 0x16A PUSH3 0x164 PUSH3 0x15E DUP5 PUSH3 0x13F JUMP JUMPDEST PUSH3 0xFC JUMP JUMPDEST PUSH3 0xF2 JUMP JUMPDEST SWAP1 POP SWAP2 SWAP1 POP JUMP JUMPDEST PUSH3 0x17C DUP2 PUSH3 0x149 JUMP JUMPDEST DUP3 MSTORE POP POP JUMP JUMPDEST PUSH1 0x0 DUP2 SWAP1 POP SWAP2 SWAP1 POP JUMP JUMPDEST PUSH1 0x0 PUSH3 0x1AD PUSH3 0x1A7 PUSH3 0x1A1 DUP5 PUSH3 0x182 JUMP JUMPDEST PUSH3 0xFC JUMP JUMPDEST PUSH3 0xF2 JUMP JUMPDEST SWAP1 POP SWAP2 SWAP1 POP JUMP JUMPDEST PUSH3 0x1BF DUP2 PUSH3 0x18C JUMP JUMPDEST DUP3 MSTORE POP POP JUMP JUMPDEST PUSH1 0x0 DUP2 SWAP1 POP SWAP2 SWAP1 POP JUMP JUMPDEST PUSH1 0x0 PUSH3 0x1F0 PUSH3 0x1EA PUSH3 0x1E4 DUP5 PUSH3 0x1C5 JUMP JUMPDEST PUSH3 0xFC JUMP JUMPDEST PUSH3 0xF2 JUMP JUMPDEST SWAP1 POP SWAP2 SWAP1 POP JUMP JUMPDEST PUSH3 0x202 DUP2 PUSH3 0x1CF JUMP JUMPDEST DUP3 MSTORE POP POP JUMP JUMPDEST PUSH1 0x0 DUP2 SWAP1 POP SWAP2 SWAP1 POP JUMP JUMPDEST PUSH1 0x0 PUSH3 0x233 PUSH3 0x22D PUSH3 0x227 DUP5 PUSH3 0x208 JUMP JUMPDEST PUSH3 0xFC JUMP JUMPDEST PUSH3 0xF2 JUMP JUMPDEST SWAP1 POP SWAP2 SWAP1 POP JUMP JUMPDEST PUSH3 0x245 DUP2 PUSH3 0x212 JUMP JUMPDEST DUP3 MSTORE POP POP JUMP JUMPDEST PUSH1 0x0 DUP2 SWAP1 POP SWAP2 SWAP1 POP JUMP JUMPDEST PUSH1 0x0 PUSH3 0x276 PUSH3 0x270 PUSH3 0x26A DUP5 PUSH3 0x24B JUMP JUMPDEST PUSH3 0xFC JUMP JUMPDEST PUSH3 0xF2 JUMP JUMPDEST SWAP1 POP SWAP2 SWAP1 POP JUMP JUMPDEST PUSH3 0x288 DUP2 PUSH3 0x255 JUMP JUMPDEST DUP3 MSTORE POP POP JUMP JUMPDEST PUSH1 0x0 DUP2 SWAP1 POP SWAP2 SWAP1 POP JUMP JUMPDEST PUSH1 0x0 PUSH3 0x2B9 PUSH3 0x2B3 PUSH3 0x2AD DUP5 PUSH3 0x28E JUMP JUMPDEST PUSH3 0xFC JUMP JUMPDEST PUSH3 0xF2 JUMP JUMPDEST SWAP1 POP SWAP2 SWAP1 POP JUMP JUMPDEST PUSH3 0x2CB DUP2 PUSH3 0x298 JUMP JUMPDEST DUP3 MSTORE POP POP JUMP JUMPDEST PUSH1 0x0 PUSH2 0x140 DUP3 ADD SWAP1 POP PUSH3 0x2E9 PUSH1 0x0 DUP4 ADD DUP14 PUSH3 0xE1 JUMP JUMPDEST PUSH3 0x2F8 PUSH1 0x20 DUP4 ADD DUP13 PUSH3 0x12E JUMP JUMPDEST PUSH3 0x307 PUSH1 0x40 DUP4 ADD DUP12 PUSH3 0x12E JUMP JUMPDEST PUSH3 0x316 PUSH1 0x60 DUP4 ADD DUP11 PUSH3 0x171 JUMP JUMPDEST PUSH3 0x325 PUSH1 0x80 DUP4 ADD DUP10 PUSH3 0x1B4 JUMP JUMPDEST PUSH3 0x334 PUSH1 0xA0 DUP4 ADD DUP9 PUSH3 0x1F7 JUMP JUMPDEST PUSH3 0x343 PUSH1 0xC0 DUP4 ADD DUP8 PUSH3 0x1B4 JUMP JUMPDEST PUSH3 0x352 PUSH1 0xE0 DUP4 ADD DUP7 PUSH3 0x23A JUMP JUMPDEST PUSH3 0x362 PUSH2 0x100 DUP4 ADD DUP6 PUSH3 0x27D JUMP JUMPDEST PUSH3 0x372 PUSH2 0x120 DUP4 ADD DUP5 PUSH3 0x2C0 JUMP JUMPDEST SWAP12 SWAP11 POP POP POP POP POP POP POP POP POP POP POP JUMP JUMPDEST PUSH2 0x138C DUP1 PUSH3 0x391 PUSH1 0x0 CODECOPY PUSH1 0x0 RETURN INVALID PUSH1 0x80 PUSH1 0x40 MSTORE CALLVALUE DUP1 ISZERO PUSH2 0x10 JUMPI PUSH1 0x0 DUP1 REVERT JUMPDEST POP PUSH1 0x4 CALLDATASIZE LT PUSH2 0x9E JUMPI PUSH1 0x0 CALLDATALOAD PUSH1 0xE0 SHR DUP1 PUSH4 0x6CBC2DED GT PUSH2 0x66 JUMPI DUP1 PUSH4 0x6CBC2DED EQ PUSH2 0x105 JUMPI DUP1 PUSH4 0xA0A1F49B EQ PUSH2 0x10F JUMPI DUP1 PUSH4 0xC6B05266 EQ PUSH2 0x119 JUMPI DUP1 PUSH4 0xD13F646C EQ PUSH2 0x13F JUMPI DUP1 PUSH4 0xEA17532E EQ PUSH2 0x174 JUMPI PUSH2 0x9E JUMP JUMPDEST DUP1 PUSH4 0x1D8557D7 EQ PUSH2 0xA3 JUMPI DUP1 PUSH4 0x218BD577 EQ PUSH2 0xAD JUMPI DUP1 PUSH4 0x2EF9F3E3 EQ PUSH2 0xB7 JUMPI DUP1 PUSH4 0x34617288 EQ PUSH2 0xDD JUMPI DUP1 PUSH4 0x5D495AEA EQ PUSH2 0xE7 JUMPI JUMPDEST PUSH1 0x0 DUP1 REVERT JUMPDEST PUSH2 0xAB PUSH2 0x1A9 JUMP JUMPDEST STOP JUMPDEST PUSH2 0xB5 PUSH2 0x2F7 JUMP JUMPDEST STOP JUMPDEST PUSH2 0xBF PUSH2 0x49F JUMP JUMPDEST PUSH1 0x40 MLOAD PUSH2 0xD4 SWAP10 SWAP9 SWAP8 SWAP7 SWAP6 SWAP5 SWAP4 SWAP3 SWAP2 SWAP1 PUSH2 0xC7D JUMP JUMPDEST PUSH1 0x40 MLOAD DUP1 SWAP2 SUB SWAP1 RETURN JUMPDEST PUSH2 0xE5 PUSH2 0x4DB JUMP JUMPDEST STOP JUMPDEST PUSH2 0xEF PUSH2 0x62D JUMP JUMPDEST PUSH1 0x40 MLOAD PUSH2 0xFC SWAP2 SWAP1 PUSH2 0xD4B JUMP JUMPDEST PUSH1 0x40 MLOAD DUP1 SWAP2 SUB SWAP1 RETURN JUMPDEST PUSH2 0x10D PUSH2 0x7A0 JUMP JUMPDEST STOP JUMPDEST PUSH2 0x117 PUSH2 0x8EE JUMP JUMPDEST STOP JUMPDEST PUSH2 0x121 PUSH2 0xA40 JUMP JUMPDEST PUSH1 0x40 MLOAD PUSH2 0x136 SWAP10 SWAP9 SWAP8 SWAP7 SWAP6 SWAP5 SWAP4 SWAP3 SWAP2 SWAP1 PUSH2 0xD81 JUMP JUMPDEST PUSH1 0x40 MLOAD DUP1 SWAP2 SUB SWAP1 RETURN JUMPDEST PUSH2 0x159 PUSH1 0x4 DUP1 CALLDATASIZE SUB DUP2 ADD SWAP1 PUSH2 0x154 SWAP2 SWAP1 PUSH2 0xE3F JUMP JUMPDEST PUSH2 0xAC3 JUMP JUMPDEST PUSH1 0x40 MLOAD PUSH2 0x16B SWAP7 SWAP6 SWAP5 SWAP4 SWAP3 SWAP2 SWAP1 PUSH2 0xE6C JUMP JUMPDEST PUSH1 0x40 MLOAD DUP1 SWAP2 SUB SWAP1 RETURN JUMPDEST PUSH2 0x18E PUSH1 0x4 DUP1 CALLDATASIZE SUB DUP2 ADD SWAP1 PUSH2 0x189 SWAP2 SWAP1 PUSH2 0xE3F JUMP JUMPDEST PUSH2 0xB8A JUMP JUMPDEST PUSH1 0x40 MLOAD PUSH2 0x1A0 SWAP7 SWAP6 SWAP5 SWAP4 SWAP3 SWAP2 SWAP1 PUSH2 0xECD JUMP JUMPDEST PUSH1 0x40 MLOAD DUP1 SWAP2 SUB SWAP1 RETURN JUMPDEST PUSH1 0x0 DUP1 ADD PUSH1 0x0 SWAP1 SLOAD SWAP1 PUSH2 0x100 EXP SWAP1 DIV PUSH20 0xFFFFFFFFFFFFFFFFFFFFFFFFFFFFFFFFFFFFFFFF AND PUSH20 0xFFFFFFFFFFFFFFFFFFFFFFFFFFFFFFFFFFFFFFFF AND CALLER PUSH20 0xFFFFFFFFFFFFFFFFFFFFFFFFFFFFFFFFFFFFFFFF AND EQ PUSH2 0x23B JUMPI PUSH1 0x40 MLOAD PUSH32 0x8C379A000000000000000000000000000000000000000000000000000000000 DUP2 MSTORE PUSH1 0x4 ADD PUSH2 0x232 SWAP1 PUSH2 0xFB1 JUMP JUMPDEST PUSH1 0x40 MLOAD DUP1 SWAP2 SUB SWAP1 REVERT JUMPDEST PUSH1 0x0 PUSH1 0x7 ADD PUSH1 0x1 SWAP1 SLOAD SWAP1 PUSH2 0x100 EXP SWAP1 DIV PUSH1 0xFF AND PUSH2 0x28D JUMPI PUSH1 0x40 MLOAD PUSH32 0x8C379A000000000000000000000000000000000000000000000000000000000 DUP2 MSTORE PUSH1 0x4 ADD PUSH2 0x284 SWAP1 PUSH2 0x1043 JUMP JUMPDEST PUSH1 0x40 MLOAD DUP1 SWAP2 SUB SWAP1 REVERT JUMPDEST PUSH20 0x0 PUSH4 0x7236B46D PUSH1 0x0 PUSH1 0x40 MLOAD DUP3 PUSH4 0xFFFFFFFF AND PUSH1 0xE0 SHL DUP2 MSTORE PUSH1 0x4 ADD PUSH2 0x2C5 SWAP2 SWAP1 PUSH2 0x106A JUMP JUMPDEST PUSH1 0x0 PUSH1 0x40 MLOAD DUP1 DUP4 SUB DUP2 DUP7 DUP1 EXTCODESIZE ISZERO DUP1 ISZERO PUSH2 0x2DD JUMPI PUSH1 0x0 DUP1 REVERT JUMPDEST POP GAS DELEGATECALL ISZERO DUP1 ISZERO PUSH2 0x2F1 JUMPI RETURNDATASIZE PUSH1 0x0 DUP1 RETURNDATACOPY RETURNDATASIZE PUSH1 0x0 REVERT JUMPDEST POP POP POP POP JUMP JUMPDEST PUSH1 0x0 PUSH1 0x7 ADD PUSH1 0x1 SWAP1 SLOAD SWAP1 PUSH2 0x100 EXP SWAP1 DIV PUSH1 0xFF AND ISZERO PUSH2 0x34A JUMPI PUSH1 0x40 MLOAD PUSH32 0x8C379A000000000000000000000000000000000000000000000000000000000 DUP2 MSTORE PUSH1 0x4 ADD PUSH2 0x341 SWAP1 PUSH2 0x10F7 JUMP JUMPDEST PUSH1 0x40 MLOAD DUP1 SWAP2 SUB SWAP1 REVERT JUMPDEST PUSH1 0x0 PUSH1 0x7 ADD PUSH1 0x0 SWAP1 SLOAD SWAP1 PUSH2 0x100 EXP SWAP1 DIV PUSH1 0xFF AND PUSH2 0x39C JUMPI PUSH1 0x40 MLOAD PUSH32 0x8C379A000000000000000000000000000000000000000000000000000000000 DUP2 MSTORE PUSH1 0x4 ADD PUSH2 0x393 SWAP1 PUSH2 0x1189 JUMP JUMPDEST PUSH1 0x40 MLOAD DUP1 SWAP2 SUB SWAP1 REVERT JUMPDEST PUSH1 0x0 ISZERO ISZERO PUSH1 0x0 PUSH1 0x9 ADD PUSH1 0x0 CALLER PUSH20 0xFFFFFFFFFFFFFFFFFFFFFFFFFFFFFFFFFFFFFFFF AND PUSH20 0xFFFFFFFFFFFFFFFFFFFFFFFFFFFFFFFFFFFFFFFF AND DUP2 MSTORE PUSH1 0x20 ADD SWAP1 DUP2 MSTORE PUSH1 0x20 ADD PUSH1 0x0 KECCAK256 PUSH1 0x0 SWAP1 SLOAD SWAP1 PUSH2 0x100 EXP SWAP1 DIV PUSH1 0xFF AND ISZERO ISZERO EQ PUSH2 0x432 JUMPI PUSH1 0x40 MLOAD PUSH32 0x8C379A000000000000000000000000000000000000000000000000000000000 DUP2 MSTORE PUSH1 0x4 ADD PUSH2 0x429 SWAP1 PUSH2 0x121B JUMP JUMPDEST PUSH1 0x40 MLOAD DUP1 SWAP2 SUB SWAP1 REVERT JUMPDEST PUSH20 0x0 PUSH4 0x5EFE7DA3 PUSH1 0x0 PUSH1 0xB PUSH1 0x40 MLOAD DUP4 PUSH4 0xFFFFFFFF AND PUSH1 0xE0 SHL DUP2 MSTORE PUSH1 0x4 ADD PUSH2 0x46D SWAP3 SWAP2 SWAP1 PUSH2 0x1242 JUMP JUMPDEST PUSH1 0x0 PUSH1 0x40 MLOAD DUP1 DUP4 SUB DUP2 DUP7 DUP1 EXTCODESIZE ISZERO DUP1 ISZERO PUSH2 0x485 JUMPI PUSH1 0x0 DUP1 REVERT JUMPDEST POP GAS DELEGATECALL ISZERO DUP1 ISZERO PUSH2 0x499 JUMPI RETURNDATASIZE PUSH1 0x0 DUP1 RETURNDATACOPY RETURNDATASIZE PUSH1 0x0 REVERT JUMPDEST POP POP POP POP JUMP JUMPDEST PUSH1 0xB DUP1 PUSH1 0x0 ADD SLOAD SWAP1 DUP1 PUSH1 0x1 ADD SLOAD SWAP1 DUP1 PUSH1 0x2 ADD SLOAD SWAP1 DUP1 PUSH1 0x3 ADD SLOAD SWAP1 DUP1 PUSH1 0x4 ADD SLOAD SWAP1 DUP1 PUSH1 0x5 ADD SLOAD SWAP1 DUP1 PUSH1 0x6 ADD SLOAD SWAP1 DUP1 PUSH1 0x7 ADD SLOAD SWAP1 DUP1 PUSH1 0x8 ADD SLOAD SWAP1 POP DUP10 JUMP JUMPDEST PUSH1 0x0 DUP1 ADD PUSH1 0x0 SWAP1 SLOAD SWAP1 PUSH2 0x100 EXP SWAP1 DIV PUSH20 0xFFFFFFFFFFFFFFFFFFFFFFFFFFFFFFFFFFFFFFFF AND PUSH20 0xFFFFFFFFFFFFFFFFFFFFFFFFFFFFFFFFFFFFFFFF AND CALLER PUSH20 0xFFFFFFFFFFFFFFFFFFFFFFFFFFFFFFFFFFFFFFFF AND EQ PUSH2 0x56D JUMPI PUSH1 0x40 MLOAD PUSH32 0x8C379A000000000000000000000000000000000000000000000000000000000 DUP2 MSTORE PUSH1 0x4 ADD PUSH2 0x564 SWAP1 PUSH2 0xFB1 JUMP JUMPDEST PUSH1 0x40 MLOAD DUP1 SWAP2 SUB SWAP1 REVERT JUMPDEST PUSH1 0x0 PUSH1 0x7 ADD PUSH1 0x1 SWAP1 SLOAD SWAP1 PUSH2 0x100 EXP SWAP1 DIV PUSH1 0xFF AND ISZERO PUSH2 0x5C0 JUMPI PUSH1 0x40 MLOAD PUSH32 0x8C379A000000000000000000000000000000000000000000000000000000000 DUP2 MSTORE PUSH1 0x4 ADD PUSH2 0x5B7 SWAP1 PUSH2 0x10F7 JUMP JUMPDEST PUSH1 0x40 MLOAD DUP1 SWAP2 SUB SWAP1 REVERT JUMPDEST PUSH20 0x0 PUSH4 0x38077A76 PUSH1 0x0 PUSH1 0xB PUSH1 0x40 MLOAD DUP4 PUSH4 0xFFFFFFFF AND PUSH1 0xE0 SHL DUP2 MSTORE PUSH1 0x4 ADD PUSH2 0x5FB SWAP3 SWAP2 SWAP1 PUSH2 0x1242 JUMP JUMPDEST PUSH1 0x0 PUSH1 0x40 MLOAD DUP1 DUP4 SUB DUP2 DUP7 DUP1 EXTCODESIZE ISZERO DUP1 ISZERO PUSH2 0x613 JUMPI PUSH1 0x0 DUP1 REVERT JUMPDEST POP GAS DELEGATECALL ISZERO DUP1 ISZERO PUSH2 0x627 JUMPI RETURNDATASIZE PUSH1 0x0 DUP1 RETURNDATACOPY RETURNDATASIZE PUSH1 0x0 REVERT JUMPDEST POP POP POP POP JUMP JUMPDEST PUSH1 0x0 DUP1 PUSH1 0x0 ADD PUSH1 0x0 SWAP1 SLOAD SWAP1 PUSH2 0x100 EXP SWAP1 DIV PUSH20 0xFFFFFFFFFFFFFFFFFFFFFFFFFFFFFFFFFFFFFFFF AND PUSH20 0xFFFFFFFFFFFFFFFFFFFFFFFFFFFFFFFFFFFFFFFF AND CALLER PUSH20 0xFFFFFFFFFFFFFFFFFFFFFFFFFFFFFFFFFFFFFFFF AND EQ PUSH2 0x6C1 JUMPI PUSH1 0x40 MLOAD PUSH32 0x8C379A000000000000000000000000000000000000000000000000000000000 DUP2 MSTORE PUSH1 0x4 ADD PUSH2 0x6B8 SWAP1 PUSH2 0xFB1 JUMP JUMPDEST PUSH1 0x40 MLOAD DUP1 SWAP2 SUB SWAP1 REVERT JUMPDEST PUSH1 0x0 PUSH1 0x7 ADD PUSH1 0x2 SWAP1 SLOAD SWAP1 PUSH2 0x100 EXP SWAP1 DIV PUSH1 0xFF AND PUSH2 0x713 JUMPI PUSH1 0x40 MLOAD PUSH32 0x8C379A000000000000000000000000000000000000000000000000000000000 DUP2 MSTORE PUSH1 0x4 ADD PUSH2 0x70A SWAP1 PUSH2 0x12DD JUMP JUMPDEST PUSH1 0x40 MLOAD DUP1 SWAP2 SUB SWAP1 REVERT JUMPDEST PUSH20 0x0 PUSH4 0xAE48C268 PUSH1 0x0 PUSH1 0x40 MLOAD DUP3 PUSH4 0xFFFFFFFF AND PUSH1 0xE0 SHL DUP2 MSTORE PUSH1 0x4 ADD PUSH2 0x74B SWAP2 SWAP1 PUSH2 0x106A JUMP JUMPDEST PUSH1 0x20 PUSH1 0x40 MLOAD DUP1 DUP4 SUB DUP2 DUP7 DUP1 EXTCODESIZE ISZERO DUP1 ISZERO PUSH2 0x763 JUMPI PUSH1 0x0 DUP1 REVERT JUMPDEST POP GAS DELEGATECALL ISZERO DUP1 ISZERO PUSH2 0x777 JUMPI RETURNDATASIZE PUSH1 0x0 DUP1 RETURNDATACOPY RETURNDATASIZE PUSH1 0x0 REVERT JUMPDEST POP POP POP POP PUSH1 0x40 MLOAD RETURNDATASIZE PUSH1 0x1F NOT PUSH1 0x1F DUP3 ADD AND DUP3 ADD DUP1 PUSH1 0x40 MSTORE POP DUP2 ADD SWAP1 PUSH2 0x79B SWAP2 SWAP1 PUSH2 0x1329 JUMP JUMPDEST SWAP1 POP SWAP1 JUMP JUMPDEST PUSH1 0x0 DUP1 ADD PUSH1 0x0 SWAP1 SLOAD SWAP1 PUSH2 0x100 EXP SWAP1 DIV PUSH20 0xFFFFFFFFFFFFFFFFFFFFFFFFFFFFFFFFFFFFFFFF AND PUSH20 0xFFFFFFFFFFFFFFFFFFFFFFFFFFFFFFFFFFFFFFFF AND CALLER PUSH20 0xFFFFFFFFFFFFFFFFFFFFFFFFFFFFFFFFFFFFFFFF AND EQ PUSH2 0x832 JUMPI PUSH1 0x40 MLOAD PUSH32 0x8C379A000000000000000000000000000000000000000000000000000000000 DUP2 MSTORE PUSH1 0x4 ADD PUSH2 0x829 SWAP1 PUSH2 0xFB1 JUMP JUMPDEST PUSH1 0x40 MLOAD DUP1 SWAP2 SUB SWAP1 REVERT JUMPDEST PUSH1 0x0 PUSH1 0x7 ADD PUSH1 0x1 SWAP1 SLOAD SWAP1 PUSH2 0x100 EXP SWAP1 DIV PUSH1 0xFF AND PUSH2 0x884 JUMPI PUSH1 0x40 MLOAD PUSH32 0x8C379A000000000000000000000000000000000000000000000000000000000 DUP2 MSTORE PUSH1 0x4 ADD PUSH2 0x87B SWAP1 PUSH2 0x1043 JUMP JUMPDEST PUSH1 0x40 MLOAD DUP1 SWAP2 SUB SWAP1 REVERT JUMPDEST PUSH20 0x0 PUSH4 0x565C0FAB PUSH1 0x0 PUSH1 0x40 MLOAD DUP3 PUSH4 0xFFFFFFFF AND PUSH1 0xE0 SHL DUP2 MSTORE PUSH1 0x4 ADD PUSH2 0x8BC SWAP2 SWAP1 PUSH2 0x106A JUMP JUMPDEST PUSH1 0x0 PUSH1 0x40 MLOAD DUP1 DUP4 SUB DUP2 DUP7 DUP1 EXTCODESIZE ISZERO DUP1 ISZERO PUSH2 0x8D4 JUMPI PUSH1 0x0 DUP1 REVERT JUMPDEST POP GAS DELEGATECALL ISZERO DUP1 ISZERO PUSH2 0x8E8 JUMPI RETURNDATASIZE PUSH1 0x0 DUP1 RETURNDATACOPY RETURNDATASIZE PUSH1 0x0 REVERT JUMPDEST POP POP POP POP JUMP JUMPDEST PUSH1 0x0 DUP1 ADD PUSH1 0x0 SWAP1 SLOAD SWAP1 PUSH2 0x100 EXP SWAP1 DIV PUSH20 0xFFFFFFFFFFFFFFFFFFFFFFFFFFFFFFFFFFFFFFFF AND PUSH20 0xFFFFFFFFFFFFFFFFFFFFFFFFFFFFFFFFFFFFFFFF AND CALLER PUSH20 0xFFFFFFFFFFFFFFFFFFFFFFFFFFFFFFFFFFFFFFFF AND EQ PUSH2 0x980 JUMPI PUSH1 0x40 MLOAD PUSH32 0x8C379A000000000000000000000000000000000000000000000000000000000 DUP2 MSTORE PUSH1 0x4 ADD PUSH2 0x977 SWAP1 PUSH2 0xFB1 JUMP JUMPDEST PUSH1 0x40 MLOAD DUP1 SWAP2 SUB SWAP1 REVERT JUMPDEST PUSH1 0x0 PUSH1 0x7 ADD PUSH1 0x1 SWAP1 SLOAD SWAP1 PUSH2 0x100 EXP SWAP1 DIV PUSH1 0xFF AND ISZERO PUSH2 0x9D3 JUMPI PUSH1 0x40 MLOAD PUSH32 0x8C379A000000000000000000000000000000000000000000000000000000000 DUP2 MSTORE PUSH1 0x4 ADD PUSH2 0x9CA SWAP1 PUSH2 0x10F7 JUMP JUMPDEST PUSH1 0x40 MLOAD DUP1 SWAP2 SUB SWAP1 REVERT JUMPDEST PUSH20 0x0 PUSH4 0x5B97F622 PUSH1 0x0 PUSH1 0xB PUSH1 0x40 MLOAD DUP4 PUSH4 0xFFFFFFFF AND PUSH1 0xE0 SHL DUP2 MSTORE PUSH1 0x4 ADD PUSH2 0xA0E SWAP3 SWAP2 SWAP1 PUSH2 0x1242 JUMP JUMPDEST PUSH1 0x0 PUSH1 0x40 MLOAD DUP1 DUP4 SUB DUP2 DUP7 DUP1 EXTCODESIZE ISZERO DUP1 ISZERO PUSH2 0xA26 JUMPI PUSH1 0x0 DUP1 REVERT JUMPDEST POP GAS DELEGATECALL ISZERO DUP1 ISZERO PUSH2 0xA3A JUMPI RETURNDATASIZE PUSH1 0x0 DUP1 RETURNDATACOPY RETURNDATASIZE PUSH1 0x0 REVERT JUMPDEST POP POP POP POP JUMP JUMPDEST PUSH1 0x0 DUP1 PUSH1 0x0 ADD PUSH1 0x0 SWAP1 SLOAD SWAP1 PUSH2 0x100 EXP SWAP1 DIV PUSH20 0xFFFFFFFFFFFFFFFFFFFFFFFFFFFFFFFFFFFFFFFF AND SWAP1 DUP1 PUSH1 0x1 ADD SLOAD SWAP1 DUP1 PUSH1 0x2 ADD SLOAD SWAP1 DUP1 PUSH1 0x3 ADD SLOAD SWAP1 DUP1 PUSH1 0x4 ADD SLOAD SWAP1 DUP1 PUSH1 0x7 ADD PUSH1 0x0 SWAP1 SLOAD SWAP1 PUSH2 0x100 EXP SWAP1 DIV PUSH1 0xFF AND SWAP1 DUP1 PUSH1 0x7 ADD PUSH1 0x1 SWAP1 SLOAD SWAP1 PUSH2 0x100 EXP SWAP1 DIV PUSH1 0xFF AND SWAP1 DUP1 PUSH1 0x7 ADD PUSH1 0x2 SWAP1 SLOAD SWAP1 PUSH2 0x100 EXP SWAP1 DIV PUSH1 0xFF AND SWAP1 DUP1 PUSH1 0xA ADD SLOAD SWAP1 POP DUP10 JUMP JUMPDEST PUSH1 0x0 DUP1 PUSH1 0x0 DUP1 PUSH1 0x0 DUP1 PUSH1 0x0 PUSH1 0x5 ADD PUSH1 0x0 DUP9 DUP2 MSTORE PUSH1 0x20 ADD SWAP1 DUP2 MSTORE PUSH1 0x20 ADD PUSH1 0x0 KECCAK256 PUSH1 0x0 ADD SLOAD PUSH1 0x0 PUSH1 0x5 ADD PUSH1 0x0 DUP10 DUP2 MSTORE PUSH1 0x20 ADD SWAP1 DUP2 MSTORE PUSH1 0x20 ADD PUSH1 0x0 KECCAK256 PUSH1 0x1 ADD SLOAD PUSH1 0x0 PUSH1 0x5 ADD PUSH1 0x0 DUP11 DUP2 MSTORE PUSH1 0x20 ADD SWAP1 DUP2 MSTORE PUSH1 0x20 ADD PUSH1 0x0 KECCAK256 PUSH1 0x2 ADD SLOAD PUSH1 0x0 PUSH1 0x5 ADD PUSH1 0x0 DUP12 DUP2 MSTORE PUSH1 0x20 ADD SWAP1 DUP2 MSTORE PUSH1 0x20 ADD PUSH1 0x0 KECCAK256 PUSH1 0x3 ADD SLOAD PUSH1 0x0 PUSH1 0x5 ADD PUSH1 0x0 DUP13 DUP2 MSTORE PUSH1 0x20 ADD SWAP1 DUP2 MSTORE PUSH1 0x20 ADD PUSH1 0x0 KECCAK256 PUSH1 0x4 ADD SLOAD PUSH1 0x0 PUSH1 0x5 ADD PUSH1 0x0 DUP14 DUP2 MSTORE PUSH1 0x20 ADD SWAP1 DUP2 MSTORE PUSH1 0x20 ADD PUSH1 0x0 KECCAK256 PUSH1 0x5 ADD PUSH1 0x0 SWAP1 SLOAD SWAP1 PUSH2 0x100 EXP SWAP1 DIV PUSH1 0xFF AND SWAP6 POP SWAP6 POP SWAP6 POP SWAP6 POP SWAP6 POP SWAP6 POP SWAP2 SWAP4 SWAP6 POP SWAP2 SWAP4 SWAP6 JUMP JUMPDEST PUSH1 0x0 DUP1 PUSH1 0x0 DUP1 PUSH1 0x0 DUP1 PUSH1 0x0 PUSH1 0x6 ADD PUSH1 0x0 DUP9 DUP2 MSTORE PUSH1 0x20 ADD SWAP1 DUP2 MSTORE PUSH1 0x20 ADD PUSH1 0x0 KECCAK256 PUSH1 0x0 ADD SLOAD PUSH1 0x0 PUSH1 0x6 ADD PUSH1 0x0 DUP10 DUP2 MSTORE PUSH1 0x20 ADD SWAP1 DUP2 MSTORE PUSH1 0x20 ADD PUSH1 0x0 KECCAK256 PUSH1 0x1 ADD PUSH1 0x0 SWAP1 SLOAD SWAP1 PUSH2 0x100 EXP SWAP1 DIV PUSH20 0xFFFFFFFFFFFFFFFFFFFFFFFFFFFFFFFFFFFFFFFF AND PUSH1 0x0 PUSH1 0x6 ADD PUSH1 0x0 DUP11 DUP2 MSTORE PUSH1 0x20 ADD SWAP1 DUP2 MSTORE PUSH1 0x20 ADD PUSH1 0x0 KECCAK256 PUSH1 0x2 ADD SLOAD PUSH1 0x0 PUSH1 0x6 ADD PUSH1 0x0 DUP12 DUP2 MSTORE PUSH1 0x20 ADD SWAP1 DUP2 MSTORE PUSH1 0x20 ADD PUSH1 0x0 KECCAK256 PUSH1 0x3 ADD SLOAD PUSH1 0x0 PUSH1 0x6 ADD PUSH1 0x0 DUP13 DUP2 MSTORE PUSH1 0x20 ADD SWAP1 DUP2 MSTORE PUSH1 0x20 ADD PUSH1 0x0 KECCAK256 PUSH1 0x4 ADD SLOAD PUSH1 0x0 PUSH1 0x6 ADD PUSH1 0x0 DUP14 DUP2 MSTORE PUSH1 0x20 ADD SWAP1 DUP2 MSTORE PUSH1 0x20 ADD PUSH1 0x0 KECCAK256 PUSH1 0x6 ADD SLOAD SWAP6 POP SWAP6 POP SWAP6 POP SWAP6 POP SWAP6 POP SWAP6 POP SWAP2 SWAP4 SWAP6 POP SWAP2 SWAP4 SWAP6 JUMP JUMPDEST PUSH1 0x0 DUP2 SWAP1 POP SWAP2 SWAP1 POP JUMP JUMPDEST PUSH2 0xC77 DUP2 PUSH2 0xC64 JUMP JUMPDEST DUP3 MSTORE POP POP JUMP JUMPDEST PUSH1 0x0 PUSH2 0x120 DUP3 ADD SWAP1 POP PUSH2 0xC93 PUSH1 0x0 DUP4 ADD DUP13 PUSH2 0xC6E JUMP JUMPDEST PUSH2 0xCA0 PUSH1 0x20 DUP4 ADD DUP12 PUSH2 0xC6E JUMP JUMPDEST PUSH2 0xCAD PUSH1 0x40 DUP4 ADD DUP11 PUSH2 0xC6E JUMP JUMPDEST PUSH2 0xCBA PUSH1 0x60 DUP4 ADD DUP10 PUSH2 0xC6E JUMP JUMPDEST PUSH2 0xCC7 PUSH1 0x80 DUP4 ADD DUP9 PUSH2 0xC6E JUMP JUMPDEST PUSH2 0xCD4 PUSH1 0xA0 DUP4 ADD DUP8 PUSH2 0xC6E JUMP JUMPDEST PUSH2 0xCE1 PUSH1 0xC0 DUP4 ADD DUP7 PUSH2 0xC6E JUMP JUMPDEST PUSH2 0xCEE PUSH1 0xE0 DUP4 ADD DUP6 PUSH2 0xC6E JUMP JUMPDEST PUSH2 0xCFC PUSH2 0x100 DUP4 ADD DUP5 PUSH2 0xC6E JUMP JUMPDEST SWAP11 SWAP10 POP POP POP POP POP POP POP POP POP POP JUMP JUMPDEST PUSH1 0x0 PUSH20 0xFFFFFFFFFFFFFFFFFFFFFFFFFFFFFFFFFFFFFFFF DUP3 AND SWAP1 POP SWAP2 SWAP1 POP JUMP JUMPDEST PUSH1 0x0 PUSH2 0xD35 DUP3 PUSH2 0xD0A JUMP JUMPDEST SWAP1 POP SWAP2 SWAP1 POP JUMP JUMPDEST PUSH2 0xD45 DUP2 PUSH2 0xD2A JUMP JUMPDEST DUP3 MSTORE POP POP JUMP JUMPDEST PUSH1 0x0 PUSH1 0x20 DUP3 ADD SWAP1 POP PUSH2 0xD60 PUSH1 0x0 DUP4 ADD DUP5 PUSH2 0xD3C JUMP JUMPDEST SWAP3 SWAP2 POP POP JUMP JUMPDEST PUSH1 0x0 DUP2 ISZERO ISZERO SWAP1 POP SWAP2 SWAP1 POP JUMP JUMPDEST PUSH2 0xD7B DUP2 PUSH2 0xD66 JUMP JUMPDEST DUP3 MSTORE POP POP JUMP JUMPDEST PUSH1 0x0 PUSH2 0x120 DUP3 ADD SWAP1 POP PUSH2 0xD97 PUSH1 0x0 DUP4 ADD DUP13 PUSH2 0xD3C JUMP JUMPDEST PUSH2 0xDA4 PUSH1 0x20 DUP4 ADD DUP12 PUSH2 0xC6E JUMP JUMPDEST PUSH2 0xDB1 PUSH1 0x40 DUP4 ADD DUP11 PUSH2 0xC6E JUMP JUMPDEST PUSH2 0xDBE PUSH1 0x60 DUP4 ADD DUP10 PUSH2 0xC6E JUMP JUMPDEST PUSH2 0xDCB PUSH1 0x80 DUP4 ADD DUP9 PUSH2 0xC6E JUMP JUMPDEST PUSH2 0xDD8 PUSH1 0xA0 DUP4 ADD DUP8 PUSH2 0xD72 JUMP JUMPDEST PUSH2 0xDE5 PUSH1 0xC0 DUP4 ADD DUP7 PUSH2 0xD72 JUMP JUMPDEST PUSH2 0xDF2 PUSH1 0xE0 DUP4 ADD DUP6 PUSH2 0xD72 JUMP JUMPDEST PUSH2 0xE00 PUSH2 0x100 DUP4 ADD DUP5 PUSH2 0xC6E JUMP JUMPDEST SWAP11 SWAP10 POP POP POP POP POP POP POP POP POP POP JUMP JUMPDEST PUSH1 0x0 DUP1 REVERT JUMPDEST PUSH2 0xE1C DUP2 PUSH2 0xC64 JUMP JUMPDEST DUP2 EQ PUSH2 0xE27 JUMPI PUSH1 0x0 DUP1 REVERT JUMPDEST POP JUMP JUMPDEST PUSH1 0x0 DUP2 CALLDATALOAD SWAP1 POP PUSH2 0xE39 DUP2 PUSH2 0xE13 JUMP JUMPDEST SWAP3 SWAP2 POP POP JUMP JUMPDEST PUSH1 0x0 PUSH1 0x20 DUP3 DUP5 SUB SLT ISZERO PUSH2 0xE55 JUMPI PUSH2 0xE54 PUSH2 0xE0E JUMP JUMPDEST JUMPDEST PUSH1 0x0 PUSH2 0xE63 DUP5 DUP3 DUP6 ADD PUSH2 0xE2A JUMP JUMPDEST SWAP2 POP POP SWAP3 SWAP2 POP POP JUMP JUMPDEST PUSH1 0x0 PUSH1 0xC0 DUP3 ADD SWAP1 POP PUSH2 0xE81 PUSH1 0x0 DUP4 ADD DUP10 PUSH2 0xC6E JUMP JUMPDEST PUSH2 0xE8E PUSH1 0x20 DUP4 ADD DUP9 PUSH2 0xC6E JUMP JUMPDEST PUSH2 0xE9B PUSH1 0x40 DUP4 ADD DUP8 PUSH2 0xC6E JUMP JUMPDEST PUSH2 0xEA8 PUSH1 0x60 DUP4 ADD DUP7 PUSH2 0xC6E JUMP JUMPDEST PUSH2 0xEB5 PUSH1 0x80 DUP4 ADD DUP6 PUSH2 0xC6E JUMP JUMPDEST PUSH2 0xEC2 PUSH1 0xA0 DUP4 ADD DUP5 PUSH2 0xD72 JUMP JUMPDEST SWAP8 SWAP7 POP POP POP POP POP POP POP JUMP JUMPDEST PUSH1 0x0 PUSH1 0xC0 DUP3 ADD SWAP1 POP PUSH2 0xEE2 PUSH1 0x0 DUP4 ADD DUP10 PUSH2 0xC6E JUMP JUMPDEST PUSH2 0xEEF PUSH1 0x20 DUP4 ADD DUP9 PUSH2 0xD3C JUMP JUMPDEST PUSH2 0xEFC PUSH1 0x40 DUP4 ADD DUP8 PUSH2 0xC6E JUMP JUMPDEST PUSH2 0xF09 PUSH1 0x60 DUP4 ADD DUP7 PUSH2 0xC6E JUMP JUMPDEST PUSH2 0xF16 PUSH1 0x80 DUP4 ADD DUP6 PUSH2 0xC6E JUMP JUMPDEST PUSH2 0xF23 PUSH1 0xA0 DUP4 ADD DUP5 PUSH2 0xC6E JUMP JUMPDEST SWAP8 SWAP7 POP POP POP POP POP POP POP JUMP JUMPDEST PUSH1 0x0 DUP3 DUP3 MSTORE PUSH1 0x20 DUP3 ADD SWAP1 POP SWAP3 SWAP2 POP POP JUMP JUMPDEST PUSH32 0x4F6E6C792061646D696E2063616E2063616C6C20746869732066756E6374696F PUSH1 0x0 DUP3 ADD MSTORE PUSH32 0x6E00000000000000000000000000000000000000000000000000000000000000 PUSH1 0x20 DUP3 ADD MSTORE POP JUMP JUMPDEST PUSH1 0x0 PUSH2 0xF9B PUSH1 0x21 DUP4 PUSH2 0xF2E JUMP JUMPDEST SWAP2 POP PUSH2 0xFA6 DUP3 PUSH2 0xF3F JUMP JUMPDEST PUSH1 0x40 DUP3 ADD SWAP1 POP SWAP2 SWAP1 POP JUMP JUMPDEST PUSH1 0x0 PUSH1 0x20 DUP3 ADD SWAP1 POP DUP2 DUP2 SUB PUSH1 0x0 DUP4 ADD MSTORE PUSH2 0xFCA DUP2 PUSH2 0xF8E JUMP JUMPDEST SWAP1 POP SWAP2 SWAP1 POP JUMP JUMPDEST PUSH32 0x546869732066756E6374696F6E2063616E206F6E6C792062652063616C6C6564 PUSH1 0x0 DUP3 ADD MSTORE PUSH32 0x207768656E2067616D65206973206F6E20676F696E6700000000000000000000 PUSH1 0x20 DUP3 ADD MSTORE POP JUMP JUMPDEST PUSH1 0x0 PUSH2 0x102D PUSH1 0x36 DUP4 PUSH2 0xF2E JUMP JUMPDEST SWAP2 POP PUSH2 0x1038 DUP3 PUSH2 0xFD1 JUMP JUMPDEST PUSH1 0x40 DUP3 ADD SWAP1 POP SWAP2 SWAP1 POP JUMP JUMPDEST PUSH1 0x0 PUSH1 0x20 DUP3 ADD SWAP1 POP DUP2 DUP2 SUB PUSH1 0x0 DUP4 ADD MSTORE PUSH2 0x105C DUP2 PUSH2 0x1020 JUMP JUMPDEST SWAP1 POP SWAP2 SWAP1 POP JUMP JUMPDEST DUP1 DUP3 MSTORE POP POP JUMP JUMPDEST PUSH1 0x0 PUSH1 0x20 DUP3 ADD SWAP1 POP PUSH2 0x107F PUSH1 0x0 DUP4 ADD DUP5 PUSH2 0x1063 JUMP JUMPDEST SWAP3 SWAP2 POP POP JUMP JUMPDEST PUSH32 0x546869732066756E6374696F6E2063616E206F6E6C792062652063616C6C6564 PUSH1 0x0 DUP3 ADD MSTORE PUSH32 0x206265666F72652067616D652073746172747300000000000000000000000000 PUSH1 0x20 DUP3 ADD MSTORE POP JUMP JUMPDEST PUSH1 0x0 PUSH2 0x10E1 PUSH1 0x33 DUP4 PUSH2 0xF2E JUMP JUMPDEST SWAP2 POP PUSH2 0x10EC DUP3 PUSH2 0x1085 JUMP JUMPDEST PUSH1 0x40 DUP3 ADD SWAP1 POP SWAP2 SWAP1 POP JUMP JUMPDEST PUSH1 0x0 PUSH1 0x20 DUP3 ADD SWAP1 POP DUP2 DUP2 SUB PUSH1 0x0 DUP4 ADD MSTORE PUSH2 0x1110 DUP2 PUSH2 0x10D4 JUMP JUMPDEST SWAP1 POP SWAP2 SWAP1 POP JUMP JUMPDEST PUSH32 0x546869732066756E6374696F6E2063616E206F6E6C792062652063616C6C6564 PUSH1 0x0 DUP3 ADD MSTORE PUSH32 0x2061667465722067616D65206D616E6167657220696E697469616C697A650000 PUSH1 0x20 DUP3 ADD MSTORE POP JUMP JUMPDEST PUSH1 0x0 PUSH2 0x1173 PUSH1 0x3E DUP4 PUSH2 0xF2E JUMP JUMPDEST SWAP2 POP PUSH2 0x117E DUP3 PUSH2 0x1117 JUMP JUMPDEST PUSH1 0x40 DUP3 ADD SWAP1 POP SWAP2 SWAP1 POP JUMP JUMPDEST PUSH1 0x0 PUSH1 0x20 DUP3 ADD SWAP1 POP DUP2 DUP2 SUB PUSH1 0x0 DUP4 ADD MSTORE PUSH2 0x11A2 DUP2 PUSH2 0x1166 JUMP JUMPDEST SWAP1 POP SWAP2 SWAP1 POP JUMP JUMPDEST PUSH32 0x50616C7965722068617320616C726561647920656E746572207468652067616D PUSH1 0x0 DUP3 ADD MSTORE PUSH32 0x6500000000000000000000000000000000000000000000000000000000000000 PUSH1 0x20 DUP3 ADD MSTORE POP JUMP JUMPDEST PUSH1 0x0 PUSH2 0x1205 PUSH1 0x21 DUP4 PUSH2 0xF2E JUMP JUMPDEST SWAP2 POP PUSH2 0x1210 DUP3 PUSH2 0x11A9 JUMP JUMPDEST PUSH1 0x40 DUP3 ADD SWAP1 POP SWAP2 SWAP1 POP JUMP JUMPDEST PUSH1 0x0 PUSH1 0x20 DUP3 ADD SWAP1 POP DUP2 DUP2 SUB PUSH1 0x0 DUP4 ADD MSTORE PUSH2 0x1234 DUP2 PUSH2 0x11F8 JUMP JUMPDEST SWAP1 POP SWAP2 SWAP1 POP JUMP JUMPDEST DUP1 DUP3 MSTORE POP POP JUMP JUMPDEST PUSH1 0x0 PUSH1 0x40 DUP3 ADD SWAP1 POP PUSH2 0x1257 PUSH1 0x0 DUP4 ADD DUP6 PUSH2 0x1063 JUMP JUMPDEST PUSH2 0x1264 PUSH1 0x20 DUP4 ADD DUP5 PUSH2 0x123B JUMP JUMPDEST SWAP4 SWAP3 POP POP POP JUMP JUMPDEST PUSH32 0x546869732066756E6374696F6E2063616E206F6E6C792062652063616C6C6564 PUSH1 0x0 DUP3 ADD MSTORE PUSH32 0x2061667465722067616D6520656E647300000000000000000000000000000000 PUSH1 0x20 DUP3 ADD MSTORE POP JUMP JUMPDEST PUSH1 0x0 PUSH2 0x12C7 PUSH1 0x30 DUP4 PUSH2 0xF2E JUMP JUMPDEST SWAP2 POP PUSH2 0x12D2 DUP3 PUSH2 0x126B JUMP JUMPDEST PUSH1 0x40 DUP3 ADD SWAP1 POP SWAP2 SWAP1 POP JUMP JUMPDEST PUSH1 0x0 PUSH1 0x20 DUP3 ADD SWAP1 POP DUP2 DUP2 SUB PUSH1 0x0 DUP4 ADD MSTORE PUSH2 0x12F6 DUP2 PUSH2 0x12BA JUMP JUMPDEST SWAP1 POP SWAP2 SWAP1 POP JUMP JUMPDEST PUSH2 0x1306 DUP2 PUSH2 0xD2A JUMP JUMPDEST DUP2 EQ PUSH2 0x1311 JUMPI PUSH1 0x0 DUP1 REVERT JUMPDEST POP JUMP JUMPDEST PUSH1 0x0 DUP2 MLOAD SWAP1 POP PUSH2 0x1323 DUP2 PUSH2 0x12FD JUMP JUMPDEST SWAP3 SWAP2 POP POP JUMP JUMPDEST PUSH1 0x0 PUSH1 0x20 DUP3 DUP5 SUB SLT ISZERO PUSH2 0x133F JUMPI PUSH2 0x133E PUSH2 0xE0E JUMP JUMPDEST JUMPDEST PUSH1 0x0 PUSH2 0x134D DUP5 DUP3 DUP6 ADD PUSH2 0x1314 JUMP JUMPDEST SWAP2 POP POP SWAP3 SWAP2 POP POP JUMP INVALID LOG2 PUSH5 0x6970667358 0x22 SLT KECCAK256 0x25 0xAB 0xCD PUSH28 0xD8F62E88DAFB9F00C4BF03E1FD34A8BC3162B40699F80784ADB05F35 PUSH5 0x736F6C6343 STOP ADDMOD MULMOD STOP CALLER "},"gasEstimates":{"creation":{"codeDepositCost":"1000800","executionCost":"infinite","totalCost":"infinite"},"external":{"endGame()":"infinite","enterGame()":"infinite","gameInitVar()":"infinite","gameManager()":"infinite","getColonyInfo(uint256)":"infinite","getPlayerInfo(uint256)":"infinite","initializeGame()":"infinite","initializeGameManager()":"infinite","pickWinner()":"infinite","updateState()":"infinite"}},"methodIdentifiers":{"endGame()":"6cbc2ded","enterGame()":"218bd577","gameInitVar()":"2ef9f3e3","gameManager()":"c6b05266","getColonyInfo(uint256)":"d13f646c","getPlayerInfo(uint256)":"ea17532e","initializeGame()":"a0a1f49b","initializeGameManager()":"34617288","pickWinner()":"5d495aea","updateState()":"1d8557d7"}},"storageLayout":{"storage":[{"astId":678,"contract":"BacteriaLabCore.sol:BacteriaLabCore","label":"gameManager","offset":0,"slot":"0","type":"t_struct(gameManagerType)52_storage"},{"astId":681,"contract":"BacteriaLabCore.sol:BacteriaLabCore","label":"gameInitVar","offset":0,"slot":"11","type":"t_struct(gameInitVarType)79_storage"}],"types":{"t_address":{"encoding":"inplace","label":"address","numberOfBytes":"20"},"t_array(t_uint256)dyn_storage":{"base":"t_uint256","encoding":"dynamic_array","label":"uint256[]","numberOfBytes":"32"},"t_bool":{"encoding":"inplace","label":"bool","numberOfBytes":"1"},"t_mapping(t_address,t_bool)":{"encoding":"mapping","key":"t_address","label":"mapping(address => bool)","numberOfBytes":"32","value":"t_bool"},"t_mapping(t_uint256,t_address)":{"encoding":"mapping","key":"t_uint256","label":"mapping(uint256 => address)","numberOfBytes":"32","value":"t_address"},"t_mapping(t_uint256,t_bool)":{"encoding":"mapping","key":"t_uint256","label":"mapping(uint256 => bool)","numberOfBytes":"32","value":"t_bool"},"t_mapping(t_uint256,t_struct(Colony)14_storage)":{"encoding":"mapping","key":"t_uint256","label":"mapping(uint256 => struct BacteriaLabColony.Colony)","numberOfBytes":"32","value":"t_struct(Colony)14_storage"},"t_mapping(t_uint256,t_struct(Player)673_storage)":{"encoding":"mapping","key":"t_uint256","label":"mapping(uint256 => struct BacteriaLabPlayer.Player)","numberOfBytes":"32","value":"t_struct(Player)673_storage"},"t_mapping(t_uint256,t_uint256)":{"encoding":"mapping","key":"t_uint256","label":"mapping(uint256 => uint256)","numberOfBytes":"32","value":"t_uint256"},"t_struct(Colony)14_storage":{"encoding":"inplace","label":"struct BacteriaLabColony.Colony","members":[{"astId":3,"contract":"BacteriaLabCore.sol:BacteriaLabCore","label":"id","offset":0,"slot":"0","type":"t_uint256"},{"astId":5,"contract":"BacteriaLabCore.sol:BacteriaLabCore","label":"ownerID","offset":0,"slot":"1","type":"t_uint256"},{"astId":7,"contract":"BacteriaLabCore.sol:BacteriaLabCore","label":"absorptionRate","offset":0,"slot":"2","type":"t_uint256"},{"astId":9,"contract":"BacteriaLabCore.sol:BacteriaLabCore","label":"defenseNutrition","offset":0,"slot":"3","type":"t_uint256"},{"astId":11,"contract":"BacteriaLabCore.sol:BacteriaLabCore","label":"occupyNutrition","offset":0,"slot":"4","type":"t_uint256"},{"astId":13,"contract":"BacteriaLabCore.sol:BacteriaLabCore","label":"isOwned","offset":0,"slot":"5","type":"t_bool"}],"numberOfBytes":"192"},"t_struct(Player)673_storage":{"encoding":"inplace","label":"struct BacteriaLabPlayer.Player","members":[{"astId":659,"contract":"BacteriaLabCore.sol:BacteriaLabCore","label":"id","offset":0,"slot":"0","type":"t_uint256"},{"astId":661,"contract":"BacteriaLabCore.sol:BacteriaLabCore","label":"playerAddress","offset":0,"slot":"1","type":"t_address"},{"astId":663,"contract":"BacteriaLabCore.sol:BacteriaLabCore","label":"nutrition","offset":0,"slot":"2","type":"t_uint256"},{"astId":665,"contract":"BacteriaLabCore.sol:BacteriaLabCore","label":"absorptionRate","offset":0,"slot":"3","type":"t_uint256"},{"astId":667,"contract":"BacteriaLabCore.sol:BacteriaLabCore","label":"color","offset":0,"slot":"4","type":"t_uint256"},{"astId":670,"contract":"BacteriaLabCore.sol:BacteriaLabCore","label":"colonyIDList","offset":0,"slot":"5","type":"t_array(t_uint256)dyn_storage"},{"astId":672,"contract":"BacteriaLabCore.sol:BacteriaLabCore","label":"colonyCount","offset":0,"slot":"6","type":"t_uint256"}],"numberOfBytes":"224"},"t_struct(gameInitVarType)79_storage":{"encoding":"inplace","label":"struct BacteriaLabGameManager.gameInitVarType","members":[{"astId":54,"contract":"BacteriaLabCore.sol:BacteriaLabCore","label":"MAP_WIDTH","offset":0,"slot":"0","type":"t_uint256"},{"astId":56,"contract":"BacteriaLabCore.sol:BacteriaLabCore","label":"MAP_LENGTH","offset":0,"slot":"1","type":"t_uint256"},{"astId":58,"contract":"BacteriaLabCore.sol:BacteriaLabCore","label":"PLAYER_INITIAL_NUTRITION","offset":0,"slot":"2","type":"t_uint256"},{"astId":60,"contract":"BacteriaLabCore.sol:BacteriaLabCore","label":"COLONY_MAX_ABSORPTION_RATE","offset":0,"slot":"3","type":"t_uint256"},{"astId":62,"contract":"BacteriaLabCore.sol:BacteriaLabCore","label":"COLONY_MAX_DEFENSE_NUTRITION","offset":0,"slot":"4","type":"t_uint256"},{"astId":64,"contract":"BacteriaLabCore.sol:BacteriaLabCore","label":"COLONY_MAX_OCCUPY_NUTRITION","offset":0,"slot":"5","type":"t_uint256"},{"astId":66,"contract":"BacteriaLabCore.sol:BacteriaLabCore","label":"COLONY_NUTRITION_ABSORPTION_INIT_RANDOM_SEED","offset":0,"slot":"6","type":"t_uint256"},{"astId":68,"contract":"BacteriaLabCore.sol:BacteriaLabCore","label":"COLONY_DEFENSE_NUTRITION_INIT_RANDOM_SEED","offset":0,"slot":"7","type":"t_uint256"},{"astId":70,"contract":"BacteriaLabCore.sol:BacteriaLabCore","label":"COLONY_OCCUPY_NUTRITION_INTI_RANDOM_SEED","offset":0,"slot":"8","type":"t_uint256"},{"astId":74,"contract":"BacteriaLabCore.sol:BacteriaLabCore","label":"colonyOwned","offset":0,"slot":"9","type":"t_mapping(t_uint256,t_bool)"},{"astId":78,"contract":"BacteriaLabCore.sol:BacteriaLabCore","label":"colonyOwnerIDMapping","offset":0,"slot":"10","type":"t_mapping(t_uint256,t_uint256)"}],"numberOfBytes":"352"},"t_struct(gameManagerType)52_storage":{"encoding":"inplace","label":"struct BacteriaLabGameManager.gameManagerType","members":[{"astId":17,"contract":"BacteriaLabCore.sol:BacteriaLabCore","label":"adminAddress","offset":0,"slot":"0","type":"t_address"},{"astId":19,"contract":"BacteriaLabCore.sol:BacteriaLabCore","label":"time","offset":0,"slot":"1","type":"t_uint256"},{"astId":21,"contract":"BacteriaLabCore.sol:BacteriaLabCore","label":"mapWidth","offset":0,"slot":"2","type":"t_uint256"},{"astId":23,"contract":"BacteriaLabCore.sol:BacteriaLabCore","label":"mapLength","offset":0,"slot":"3","type":"t_uint256"},{"astId":25,"contract":"BacteriaLabCore.sol:BacteriaLabCore","label":"totalColonyCount","offset":0,"slot":"4","type":"t_uint256"},{"astId":30,"contract":"BacteriaLabCore.sol:BacteriaLabCore","label":"map","offset":0,"slot":"5","type":"t_mapping(t_uint256,t_struct(Colony)14_storage)"},{"astId":35,"contract":"BacteriaLabCore.sol:BacteriaLabCore","label":"playerList","offset":0,"slot":"6","type":"t_mapping(t_uint256,t_struct(Player)673_storage)"},{"astId":37,"contract":"BacteriaLabCore.sol:BacteriaLabCore","label":"isInit","offset":0,"slot":"7","type":"t_bool"},{"astId":39,"contract":"BacteriaLabCore.sol:BacteriaLabCore","label":"isStart","offset":1,"slot":"7","type":"t_bool"},{"astId":41,"contract":"BacteriaLabCore.sol:BacteriaLabCore","label":"isEnd","offset":2,"slot":"7","type":"t_bool"},{"astId":45,"contract":"BacteriaLabCore.sol:BacteriaLabCore","label":"playerAddressList","offset":0,"slot":"8","type":"t_mapping(t_uint256,t_address)"},{"astId":49,"contract":"BacteriaLabCore.sol:BacteriaLabCore","label":"isPlayer","offset":0,"slot":"9","type":"t_mapping(t_address,t_bool)"},{"astId":51,"contract":"BacteriaLabCore.sol:BacteriaLabCore","label":"playerCount","offset":0,"slot":"10","type":"t_uint256"}],"numberOfBytes":"352"},"t_uint256":{"encoding":"inplace","label":"uint256","numberOfBytes":"32"}}},"userdoc":{"kind":"user","methods":{"constructor":{"notice":"Initializer ///"},"gameManager()":{"notice":"Storagte Space ///"},"getColonyInfo(uint256)":{"notice":"Getter Function ///"},"initializeGameManager()":{"notice":"GameManager Caller ///"}},"version":1}}